:020000023000CC
:10100000000004200913030031130300331303000D
:1010100035130300371303003913030000000000E9
:101020000000000000000000000000003B1303006F
:101030003D130300000000003F13030041130300B1
:1010400043130300431303007D63030043130300B2
:101050004313030043130300595E030043130300CB
:10106000431303004313030043130300431303001C
:10107000431303004313030043130300431303000C
:1010800043130300F533030043130300431303002A
:101090004313030043130300DDCD03004313030098
:1010A00043130300431303004313030043130300DC
:1010B000431303004313030000000000000000007E
:1010C00043130300431303004313030043130300BC
:1010D00043130300431303004313030043130300AC
:1010E00043130300431303004313030000000000F5
:1010F000000000004313030000000000431303003E
:1011000000000000000000000000000000000000DF
:1011100000000000000000000000000000000000CF
:1011200000000000000000000000000000000000BF
:1011300000000000000000000000000000000000AF
:10114000000000000000000000000000000000009F
:10115000000000000000000000000000000000008F
:10116000000000000000000000000000000000007F
:10117000000000000000000000000000000000006F
:10118000000000000000000000000000000000005F
:10119000000000000000000000000000000000004F
:1011A000000000000000000000000000000000003F
:1011B000000000000000000000000000000000002F
:1011C000000000000000000000000000000000001F
:1011D000000000000000000000000000000000000F
:1011E00000000000000000000000000000000000FF
:1011F00000000000000000000000000000000000EF
:101200000348044B834202D0034B03B11847704795
:101210006428002064280020000000000548064BD8
:101220001B1AD90F01EBA301491002D0034B03B1E4
:101230001847704764280020642800200000000040
:1012400010B5064C237843B9FFF7DAFF044B13B10E
:101250000448AFF300800123237010BD78280020DC
:1012600000000000DCF7030008B5054B1BB1054981
:101270000548AFF30080BDE80840FFF7CFBF00BFCF
:10128000000000007C280020DCF70300A3F5803A72
:10129000704700BF174B002B08BF134B9D46FFF74D
:1012A000F5FF00218B460F461348144A121A0BF023
:1012B000AAFF0E4B002B00D098470D4B002B00D0FF
:1012C00098470020002104000D000D48002802D09E
:1012D0000C48AFF300800BF09FFF2000290006F0C0
:1012E000F7FB0BF055FF00BF0000080000000000F6
:1012F000000000000000042078280020343800207E
:1013000000000000000000000649074A074B9B1A36
:1013100003DD043BC858D050FBDC01F047F9FFF770
:10132000B9FF0000A4F903009827002078280020C6
:10133000FEE7FEE7FEE7FEE7FEE7FEE7FEE7FEE785
:10134000FEE7FEE7704700BF00B583B0044B009393
:10135000044A402300F03AF803B05DF804FB00BFF4
:10136000691303009428002022B32DE9F843134B9E
:10137000134E88461446032743F0010900252246F0
:1013800008EB0501002006F051FE034601224FF450
:101390007A40E41A1D4443B933784BB1C847013F42
:1013A0004FF0010307D03370E9E73270002CE6D12B
:1013B000BDE8F88370473770BDE8F883F0D50300C7
:1013C000D4280020704700BF06F0F2BEF0B595B0FB
:1013D000084600240E4617461D4604F08FF91A9958
:1013E0000D912346082205A93046CDE908750A94D7
:1013F0008DF82C400C9404F0E5F9DDE906219DF808
:1014000014308DF81140CDE9021203F00302012AD5
:1014100028D0022A04D0304604F074F915B0F0BD8B
:10142000BDF81650C3F3C203C5F389158DF810300B
:101430000827082D2C4628BF08243B4622460EA923
:10144000304604F0BFF92D1B08AB02AA21460EA8B6
:10145000274400F069FF002DEBD1304604F052F92B
:1014600015B0F0BDBDF81440059DC4F38314C3F35B
:10147000C2038DF81030A2000EA93046082304F0F4
:10148000A1F9C5F3952508AB0093224602AB0EA93E
:10149000284600F0D3FE304604F034F915B0F0BD14
:1014A000704700BF00B583B0044B0093044A40234B
:1014B000FFF78CFF03B05DF804FB00BFC514030009
:1014C000D828002038B50E480E4C0F4D002323704D
:1014D0000378EB5CD2B253B1043005F0CFFC58B9BD
:1014E0000A4B1B7813B12378002BFCD038BD0C308D
:1014F00005F0DEF90028F3D001F030FBF0E700BF83
:1015000098270020D62800203C300020D528002035
:1015100010B51548154A0378D35C88B0C3B10430C0
:1015200005F0F6FB124C0FCCEC46ACE80F0094E84B
:101530000F008CE80F0006230B4800930022694639
:1015400004F05CFA40B90B4B00221A7008B010BDD1
:101550000C3005F029F9E5E701F000FB054B00220E
:101560001A7008B010BD00BF982700203C30002042
:1015700010D60300D528002010B50F4C0FCC88B032
:10158000EC46ACE80F0094E80F008CE80F0006234F
:101590000A4800930022694604F030FA20B9084B4B
:1015A00000221A7008B010BD01F0D8FA044B0022D6
:1015B0001A7008B010BD00BF10D603009827002095
:1015C000D528002010B5FFF7FFFE0421074800F0E2
:1015D000B3FD074B01245C71FFF7CEFF05480421E2
:1015E00000F0AAFD044B5C7110BD00BF78F9030048
:1015F000B427002068F90300AC270020064B0748F9
:1016000010B501221A7004F02DF8044610B90448F0
:1016100004F04EF9204610BD1829002088F9030077
:1016200008F4030030B499B10D490E4D491BC908A7
:1016300013D00D4C002302E0013399420AD034F854
:1016400023208242F8D1184655F8300030BC70474C
:10165000044DF9E7002030BC70470846F6E700BFAC
:1016600068F9030058F8030064280020094B013989
:1016700003EBC00303290BD8DFE801F004020806DE
:1016800004207047022070475879704718797047D6
:101690000020704758F803002DE9F0438B4CD4E943
:1016A00001239A4287B05DD00023C4F81834BFF3F9
:1016B0004F8FA568EAB2D31C04EB830014F82330E3
:1016C000590718D56668037803F00303012B42D04D
:1016D000022B03D14388023505EB9315EAB2D4F807
:1016E0001814D31C04EB830029B9AE4239D914F87D
:1016F00023305B07E7D404EB82026B1CDBB2D268B9
:1017000004EB830302F00301DB680229CDE9022325
:1017100005F102062AD0012900F08B80D4F810547C
:101720003DB12B6828469B689847EB681D68002DE3
:10173000F7D1674B67486849181AC008000440F0A1
:10174000020000F0CFF8D4E90130C01A18BF012020
:1017500007B0BDE8F08303880235C3F383131D444B
:10176000BCE7A660002007B0BDE8F083BDF80A30F2
:101770005A48C3F389184546502D28BF502565F3B4
:101780008F1305F10801ADF80A3003F06DFF07462D
:101790000028C3D003F0B2FF08220DEB02010023A2
:1017A000384603F0DBFFF343DBB20133F2B203321E
:1017B000B5EB830F04EB82014FEA830978D9A5EBDF
:1017C000090508234A463846EDB203F0C7FF4449ED
:1017D00009F108032A46384603F0C0FF08F1030860
:1017E00006EB9806D4F81834002B6BD1D4F81054BB
:1017F00065B1EB685A7939462846002A5ED02B68D5
:101800001B689847EB681D68002DF2D1384603F03D
:1018100079FF00230DF107008DF8073001F050FC2F
:10182000D4F8183403B9A6609DF8070001F06EFCE7
:1018300089E7BDF808202948C2F38313062B28BF87
:10184000062363F38912023303F00F018900ADF818
:10185000082003F009FF074600283FF45FAF03F0BC
:101860004DFF082200230DEB0201384603F076FFFE
:10187000BDF8083013F4707FB4D06FF001084FF05A
:101880000809A8EB0508F1B203314B46042204EB2A
:101890008101384603F062FFBDF808300136C3F31A
:1018A000831308EB0602934209F10409EBD899E788
:1018B0002A460823384603F051FF8FE71D68002DA4
:1018C00097D1A3E7384603F01DFF3CE71829002015
:1018D000C0F8030058F8030054D6030088F9030049
:1018E000242900202DE9F0435B4F85B000230446F6
:1018F0000DF103008DF803300E4601F0E1FBD7E94E
:10190000015303F580735B1B012B2CD971E007EBAE
:1019100082015A1CC9680191D2B201F0030007EBA1
:1019200082020128D16803F102095AD002284ED15F
:10193000BDF80630C3F3891303334FEA114809EBAE
:101940009309464802F02AFF4146002847D0444800
:10195000C7F8089002F0FEFED7E9012303F5807373
:101960009B1A012B46D801213D4802F0F3FE3D4869
:1019700002F008FF394802F005FFBB68DAB2D11C5B
:1019800007EB810017F821104907C0D5017801F055
:101990000301012903F102030AD0022902F1030124
:1019A00011D007EB8100017801F003010129F4D186
:1019B0000288C2F383121344DAB2D11C07EB810010
:1019C00017F82110E0E7428803EB9213D6E723488B
:1019D00002F0E4FE4FF0000841460028B7D120484D
:1019E000B8E7BDF80430C3F383134FEA11489944B4
:1019F000A7E72A46D3B20333052147F82310023262
:101A00009DF803007A6001F081FB0021144802F088
:101A100067FE80F31001E300681C03F03803C0B2D6
:101A2000EAB2090443F0010307EB8000033243EA02
:101A3000862341EA1441C16047F822303B7813B94C
:101A400005B0BDE8F083FFF727FE0028F8D0FFF7C8
:101A500023FE0028F7D1F3E7182900202C2D0020C1
:101A6000342D0020302D00202DE9F04FDFF8D0A1DB
:101A700087B0002304460DF10B0002F103088DF836
:101A80000B301746019101F01BFBDAF80830DAF849
:101A900004604FEA980803F5807308F102059B1B68
:101AA0009D422BD869E00AEB820203F1020BD26857
:101AB00003920133DBB20AEB830302F00302012A33
:101AC000D96852D0022A49D1BDF80E30C3F3891328
:101AD00003334FEA11490BEB930B554802F05EFEBE
:101AE000494608B1CAF808B0524802F033FEDAE9B4
:101AF000012303F580739B1A9D423FD901214D4874
:101B000002F028FE4C4802F03DFE494802F03AFE41
:101B1000DAF80830DAB2D11C0AEB81001AF8211089
:101B20004907C0D5991C037803F00303012B0AD0A1
:101B3000022B02F1030314D00AEB8300037803F0B5
:101B40000303012BF4D10388C3F383130B44DAB2EC
:101B5000D11C0AEB81001AF82110E1E74FF00009CF
:101B6000BBE7438801EB9313D4E7BDF80C30C3F314
:101B700083134FEA11499B44AFE73246D3B2154471
:101B80000333062268F39F524AF823209DF80B0086
:101B9000CAF8045001F0BAFAB31CDBB2C3F5807185
:101BA000B7EB810F03F103030AEB83004FEA8105D2
:101BB00030D801993A460BF05BFB00211D4802F03A
:101BC0008FFD80F31000731CDBB20AEB8303F2B2CB
:101BD000210C033241EA0041D960E3005AF8221097
:101BE00003F0380343F0020343EA875301F47C1106
:101BF0000B434AF822309AF8003013B907B0BDE819
:101C0000F08FFFF749FD0028F8D0FFF745FD0028C9
:101C1000F7D1F3E7DDF804802A4641460BF028FBB4
:101C2000414629447A1B05480BF022FBC5E700BF5B
:101C30002C2D0020342D0020302D002024290020C0
:101C4000182900202DE9F047DFF8948184B00023A3
:101C500004460DF103008DF803300E46174601F0DF
:101C60002FFAD8E9015303F580735B1B022B2FD9A0
:101C700075E008EB820203F1010CD26801925FFA71
:101C80008CFC08EB8C0C02F003000128DCF80C1033
:101C900003F1020A5BD002284FD1BDF80630C3F32E
:101CA000891303334FEA11490AEB930A494802F0BA
:101CB00075FD4946002848D04748C8F808A002F0FA
:101CC00049FDD8E9012303F580739B1A022B47D8FD
:101CD0000121414802F03EFD404802F053FD3D48DD
:101CE00002F050FDD8F80830DAB2D11C08EB8100C0
:101CF00018F821104907BCD5017801F0030101292A
:101D000003F102030AD0022902F1030111D008EB0A
:101D10008100017801F003010129F4D10288C2F3A6
:101D200083121344DAB2D11C08EB810018F8211099
:101D3000E0E7428803EB9213D6E7264802F02EFD37
:101D40004FF0000949460028B6D12348B7E7BDF84F
:101D50000430C3F383134FEA11499A44A6E72A4695
:101D6000D3B20333452148F8231003329DF8030012
:101D7000C8F8042001F0CAF9AB1CDBB208EB8303FE
:101D800000211548DF6002F0ABFC80F31001E30096
:101D9000681C03F03803C0B2EAB2090443F04103FF
:101DA00008EB8000033243EA862341EA1441C16014
:101DB00048F8223098F8003013B904B0BDE8F08735
:101DC000FFF76AFC0028F8D0FFF766FC0028F7D17F
:101DD000F3E700BF2C2D0020342D0020302D0020F3
:101DE000182900202DE9F04FDFF8A49185B00025D7
:101DF00004460DF103001F468DF803500E46904631
:101E000001F05EF9D9F80830D9F8045003F5807371
:101E10005B1B032B2FD975E009EB820203F1010C48
:101E2000D26801925FFA8CFC09EB8C0C02F0030083
:101E30000128DCF80C1003F1020B5BD002284FD113
:101E4000BDF80630C3F3891303334FEA114A0BEB95
:101E5000930B4C4802F0A2FC5146002848D04A4857
:101E6000C9F808B002F076FCD9E9012303F58073C4
:101E70009B1A032B47D80121434802F06BFC4348CF
:101E800002F080FC3F4802F07DFCD9F80830DAB25D
:101E9000D11C09EB810019F821104907BCD5017844
:101EA00001F00301012903F102030AD0022902F122
:101EB000030111D009EB8100017801F00301012930
:101EC000F4D10288C2F383121344DAB2D11C09EBB5
:101ED000810019F82110E0E7428803EB9213D6E75E
:101EE000284802F05BFC4FF0000A51460028B6D1AA
:101EF0002548B7E7BDF80430C3F383134FEA114A0E
:101F00009B44A6E72A46D3B20333852149F8231020
:101F100004329DF80300C9F8042001F0F7F8AB1C67
:101F2000DBB209EB83030021C3F80C80EB1CDBB2AE
:101F300009EB83031448DF6002F0D2FB80F3100149
:101F4000E300681C03F03803C0B2EAB2090443F0AE
:101F5000810309EB8000033243EA862341EA1441FE
:101F6000C16049F8223099F8003013B905B0BDE8D6
:101F7000F08FFFF791FB0028F8D0FFF78DFB0028CA
:101F8000F7D1F3E72C2D0020342D0020302D002038
:101F9000182900202DE9F04FDFF8989185B004460C
:101FA0001F460DF1030000238DF803300E469046C6
:101FB00001F086F8D9F80830D9F8045003F5807399
:101FC0005B1B042B2BD969E009EB820203F1020AA7
:101FD000D26801920133DBB209EB830302F0030202
:101FE000012AD96852D0022A49D1BDF80630C3F37C
:101FF000891303334FEA114B0AEB930A4A4802F064
:10200000CDFB594608B1C9F808A0484802F0A2FB28
:10201000D9E9012303F580739B1A042B3FD80121D2
:10202000424802F097FB424802F0ACFB3E4802F007
:10203000A9FBD9F80830DAB2D11C09EB810019F8F4
:1020400021104907C0D5991C037803F00303012B25
:102050000AD0022B02F1030314D009EB83000378AA
:1020600003F00303012BF4D10388C3F383130B4460
:10207000DAB2D11C09EB810019F82110E1E74FF029
:10208000000BBBE7438801EB9313D4E7BDF80430A2
:10209000C3F383134FEA114B9A44AFE72A46D3B2F6
:1020A0000333C52149F8231005329DF80300C9F810
:1020B000042001F02BF8AB1CDBB209EB83030E9A72
:1020C000C3F80C80EB1CDBB209EB83030021DF605B
:1020D0002B1DDBB209EB83031448DA6002F000FB2E
:1020E00080F31001E200681C02F03802C0B2EBB2CB
:1020F0000333090442F0C10209EB800041EA1441B4
:1021000042EA8622C16049F8232099F8003013B9C9
:1021100005B0BDE8F08FFFF7BFFA0028F8D0FFF751
:10212000BBFA0028F7D1F3E72C2D0020342D002036
:10213000302D00201829002030B4154DD5F810148A
:10214000044679B100200B4601E01B685BB1DB68F7
:102150001A798242F9D101300A28F4D14FF0FF30C8
:1021600030BC70470846E3681871D5F810344BB19D
:10217000DA68E36812681A60D5F81034DB681C600E
:1021800030BC7047C5F81044E268136030BC70473B
:102190001829002038B5084BD3F8104401251D70CC
:1021A0004CB1E3685D71236820465B689847E3683B
:1021B0001C68002CF5D138BD1829002030B5C38823
:1021C00083B004460D461BBB237A052B1ED0627AD2
:1021D0007AB9134AA08852F823400021FFF722FA67
:1021E000104903462246284603B0BDE8304002F0BD
:1021F0004FBB1946A088FFF739FA0B4B0B4953F830
:102200002020284602F044FB237AE2E703B030BDE9
:1022100007490091074A0849284602F039FBD3E7ED
:1022200038F4030098D6030014F4030094D6030096
:102230008CD603006CD6030074D603002DE9F0435E
:1022400085B01D460C9C002394F80C9023738046A7
:102250000E46174621462846FFF7B0FF062F09D83D
:10226000DFE807F0042E343B444F1F004146204670
:1022700002F00EFB2B7A052B05D06B7A5BB9274950
:10228000204602F005FB204602F0F6FA84F80C9096
:1022900005B0BDE8F083224A2249204602F0F8FA50
:1022A000EDE77369039333690293F3680193B368AD
:1022B0000093D6E900234146204602F0E9FAD9E727
:1022C00032684146204602F0E3FAD3E7D6E900231C
:1022D0004146204602F0DCFACCE7B3680093D6E929
:1022E00000234146204602F0D3FAC3E7F368019386
:1022F000B3680093D6E900234146204602F0C8FAAD
:10230000B8E733690293F3680193B3680093D6E9A1
:1023100000234146204602F0BBFAABE7A4D60300F7
:102320008CD6030094D60300082900D970472DE904
:10233000F84F1E4693F80CA000230D460746337352
:10234000314610469046FFF739FF7DB107F1FF3B5C
:10235000D9464C4602342C4919F8012F3046E41B6B
:1023600002F096FAAC42F4D3082D47D02C46274908
:102370003046013402F08CFA082CF8D1244930465A
:1023800002F086FADDB107F1FF3BDFF89C905C4676
:102390001BF8013F7E2B4FF02E0206D819F80320C0
:1023A00012F0970F14BF1A462E22023419493046F4
:1023B000E41B02F06DFAA542E9D8082D06D01649B3
:1023C0003046013502F064FA082DF8D198F808304B
:1023D000052B02D098F8093053B91049304602F065
:1023E00057FA304602F048FA86F80CA0BDE8F88F9C
:1023F0000B4A0C49304602F04BFAEEE704493046EE
:1024000002F046FAC1E700BFA8D60300B0D6030029
:10241000B4D60300B8D60300BCD60300A4D603008C
:102420008CD6030094D60300D9F60300074B1B5C3F
:102430001F2B8ABF064A4FF0A04203F01F03D2F8B9
:102440000405D840C04300F0010070474CF403007D
:1024500000030050064B1A5C1F2A86BF054902F094
:102460001F024FF0A04101239340C1F80C35704783
:102470004CF4030000030050064B1A5C1F2A86BF71
:10248000054902F01F024FF0A04101239340C1F81B
:10249000083570474CF40300000300504FF0A04390
:1024A00010B44FF480404FF400544FF400414FF407
:1024B0008032C3F80845C3F80805C3F80815C3F807
:1024C00008255DF8044B70474FF0A04310B44FF45B
:1024D00080404FF400544FF400414FF48032C3F871
:1024E0000C45C3F80C05C3F80C15C3F80C255DF8B2
:1024F000044B70470A4B185C1F288ABF09494FF0EC
:10250000A04100F01F00D1F804350122824022EAE8
:1025100003001340C1F80805C1F80C35704700BF2F
:102520004CF40300000300500B2809D00C2809D0FC
:10253000182809D0192814BF4FF0FF300320704726
:10254000002070470120704702207047C20710B476
:102550000FD483070AD54FF0A0430C22C3F82C27D1
:10256000C3F83027C3F86027C3F864275DF8044B2D
:1025700070474FF0A04303224FF40051C3F83427B3
:102580004FF48044C3F83827C3F83C27C3F84027EA
:10259000C3F808154FF480324FF40041C3F80845E2
:1025A000C3F80815C3F80825D3E700BF10B44FF0EF
:1025B0008053D3F83021082A2FD06A4AD2F88830C5
:1025C00043F47003C2F88830BFF34F8FBFF36F8FAF
:1025D0004FF08053D3F83021082A11D04FF0102348
:1025E000D3F80022002AC0F28C80D3F80432002BEA
:1025F000C0F287805C4B5D4A1A605DF8044B7047FF
:10260000D3F83431032BE9D94FF010224FF0804337
:10261000D2F80822C3F85825E0E74FF080410020A7
:10262000C1F80C01524AC1F81001C1F83805D3F8BD
:102630000404C2F82005D3F80804C2F82405D3F82E
:102640000C04C2F82805D3F81004C2F82C05D3F8FE
:102650001404C2F83005D3F81804C2F83405D3F8CE
:102660001C04C2F84005D3F82004C2F84405D3F88E
:102670002404C2F84805D3F82804C2F84C05D3F85E
:102680002C04C2F85005D3F83004C2F85405D3F82E
:102690003404C2F86005D3F83804C2F86405D3F8EE
:1026A0003C04C2F86805D3F84004C2F86C05D3F8BE
:1026B0003401D3F84444C2F8704550B14FF0804320
:1026C000D3F80024D20744BF6FF00102C3F80024FE
:1026D00073E72848284CC0F88C4602F54052FB208E
:1026E000C2F81805D1F8E42ED3F85842234813460F
:1026F00064F303034FF40072C1F8E43EC0F84026CF
:10270000DCE71F4A0123C2F80435D2F80034002B5D
:10271000FBD04FF010231221194AC3F80012D2F84F
:102720000034002BFBD04FF010231221144AC3F8C1
:102730000412D2F80034002BFBD000231049C2F859
:102740000435D1F80034002BFBD0BFF34F8F05497F
:102750000C4BCA6802F4E0621343CB60BFF34F8FA7
:1027600000BFFDE700ED00E0BC2700200090D00393
:1027700000C000400050004048810300009002402B
:1027800000E001400400FA0538B5174B1D783DB351
:10279000164A1168C0B200230C4604E00133AB4274
:1027A00004F108041CD011F833209042F6D103F054
:1027B00043FB6378A3F10103B3FA83F35B0983421C
:1027C00000D038BD0A4AD2E900321343F9D1094B8F
:1027D000094819680022BDE83840490800F0D8BB14
:1027E00000231B78FFDE00BFCC2E0020D02E00205F
:1027F000C02E0020C82E0020C02700202DE9F04761
:10280000DFF86C82DFF86C9298F8003082B0002B11
:1028100051D0934F934E00243D6805EBC40A15F840
:10282000340003F009FB15F834509AF801306908B8
:10283000A3F10103B3FA83F315F0010E725C4FEAC2
:10284000531300F0A6804FEA121CBCF1040F00F2F3
:102850009680DFE80CF0033847974E00834240F043
:102860008E800F2010230240134373540DF1070094
:1028700000238DF8073000F023FC0122A5F120038E
:10288000C5F1200122FA01F102FA03F30B43D9F852
:1028900000109DF80700AA401143D9F80420C9F898
:1028A00000101A43C9F8042000F030FC98F800C06A
:1028B00001346445B0DBD9E90032134340F0C680EF
:1028C00002B0BDE8F087181AB0FA80F04009400164
:1028D0000F2313401843705498F800C00134644526
:1028E0009ADBE8E783424FF00F0040F0AD803023E1
:1028F0006FE0834298F800C000F0A380CEF1000E94
:102900008EF0F00E02EA0E0E06F801E0BCF1000FA8
:1029100013D038680023024603E0634502F1080241
:102920000BD010F83310A94203F10103F5D122B105
:10293000536813B100212846984700230DF1070082
:102940008DF8073000F0BCFB0122A5F12003C5F192
:10295000200122FA01F102FA03F30B43D9F8001027
:102960009DF80700AA4021EA0201D9F80420C9F81D
:10297000001022EA0302C9F8042000F0C7FB98F80F
:1029800000C0ABE7834298F800C0A7D00F204023D7
:1029900016E002F00F0CBCF1040FF0D8DFE80CF0E9
:1029A000453E140A0300834298F800C0A6D1F020E7
:1029B000032305E0834298F800C08FD0F020042361
:1029C00002401343735489E783424FF0F00031D142
:1029D0000323024098F800C013437354BCF1000F66
:1029E0003FF469AF38680023024604E0634502F112
:1029F00008023FF473AF10F83310A94203F101034A
:102A0000F4D1002A3FF46AAF5368002B3FF466AF5D
:102A100028460121984798F800C05FE7181AB0FAD5
:102A200080F040094000F02353E78342A7D1F02013
:102A3000012318E7012302401343735498F800C0A0
:102A40004CE70F203023BBE71023F4E7064B074881
:102A500019680022490802B0BDE8F04700F098BAB2
:102A6000D02E0020A02E0020C82E0020C02700203D
:102A7000CC2E0020C02E0020092A3ED970B582B08D
:102A8000144605460E4603F04DF880B3204B214A0C
:102A90001E70214B1560002120481C6020220AF086
:102AA000B2FB1F4B00200021741EC3E90001E4B2F9
:102AB0002EB305EBC404032602E0AC421FD01C4633
:102AC0009DF8063094F802C02078164A8DF804600C
:102AD00023F0070301A98DF806308DF805C003F037
:102AE0002BF8A4F108030028E7D002B070BD02F073
:102AF000C1FF0028CAD002B070BD072070470A4A43
:102B00000A48002102B0BDE8704000F029BA00BFB9
:102B1000CC2E0020D02E0020C82E0020A02E002079
:102B2000C02E002089270300FD27030050F4030076
:102B300070B5084D2B785BB1074E00243368012136
:102B400013F8340003F002F92B780134A342F5D8CE
:102B5000002070BDCC2E0020D02E002000B585B006
:102B60000346002101AA44F20100CDE901110393BB
:102B700000F004F805B05DF804FB00BF10B572B6B4
:102B8000FFF708FBFEF788FD0028FBD1104B114C26
:102B900011491C1BE408240444F00100FEF7A2FEC6
:102BA0000E4BD3F8F030DB0700D500BE0C4944F0E3
:102BB0000200FEF797FEBFF34F8F0849094BCA6822
:102BC00002F4E0621343CB60BFF34F8F00BFFDE719
:102BD000C0F8030058F8030024D7030000ED00E01C
:102BE00030D703000400FA0530B48D688468C268E9
:102BF000CB68A54293412CBF0120002030BC704718
:102C000030B5344B1D7883B0002D43D004460028E6
:102C100040D0314800F0D8FB304B1A685B68801810
:102C20002F4AD2E9001243F10003884273EB0202FB
:102C300003D210F1807043F10003D4E902128842FC
:102C400093410AD2B2F1FF3F08BFB1F1FF3F21D05B
:102C50002448214602F050FE1DE000230DF107003C
:102C60008DF8073000F02CFA23695BB39DF807005C
:102C700000F04CFAD4E90530984700230DF1070025
:102C80008DF8073000F01CFA23699DF807002BB976
:102C900000F03CFA0025284603B030BDD4E902120A
:102CA000B2F1FF3F08BFB1F1FF3FF1D05B1842F135
:102CB0000002C4E9023200F029FA0A48214602F073
:102CC0001BFEE8E74FF0FF324FF0FF33C4E9022369
:102CD000CCE700BF502F0020E0270020482F002025
:102CE000402F002054F403002DE9F04383B0074641
:102CF00000F03EFB40B1774AD2E9003113F1807316
:102D000041F10001C2E900310021384600F04CFBDE
:102D1000714D30B12B6823B12868FFF771FF002394
:102D20002B600121384600F03FFB002840F0BB80BB
:102D30006A4801A901F022FC002836D04FF0FF3884
:102D40004FF0FF3915E05BB94168D1E90223B3F1D7
:102D5000FF3F08BFB2F1FF3F02D0614802F0CCFD57
:102D600001A95E4801F03CFC5C4801A901F006FCA9
:102D7000D8B10378012B10D0022BE4D1584802F0CF
:102D8000CFFD30B1C0E90289554802F0C9FD0028E5
:102D9000F8D1544B01221A70E2E72B68416899423E
:102DA0007ED04F4802F0C6FDDAE74A4E4C4802F0AA
:102DB000BDFD002851D0D0E90223B3F1FF3F08BF89
:102DC000B2F1FF3F68D0296891B12968D1E90201C9
:102DD00082428B4157D22B68D3E90223B3F1FF3FE4
:102DE00008BFB2F1FF3F03D029683D4802F084FDDF
:102DF0003B4802F095FD04463B48D4E9028900F0C7
:102E0000E3FA3A4AD6E90031D2E900C2C31841F1E7
:102E10000001634571EB020203D213F1807341F1AB
:102E20000001B8EB030369EB0109012B79F10009FB
:102E30001BDBB3F5350F29D242462B484FF49603DE
:102E4000002100F00BFAC0B10D2812D00023244855
:102E50002B6002F06BFD0028ADD12B689BB9384682
:102E600003B0BDE8F04300F0CBB91F48002100F0EB
:102E70008FFA2046FFF7C4FEE8E72B6813B93846FF
:102E800000F0BAF92C6003B0BDE8F083164800F0FA
:102E90009BFA174A0244D0E7114802F041FD85E74A
:102EA00000232B605CE7104800F08EFA094B1A688B
:102EB0005B6880180D4AD2E9004143F10003A0424B
:102EC00073EB010103D210F1807043F10003C2E9FA
:102ED00000032DE7482F0020542F0020D82E00207B
:102EE00054F40300502F0020E0270020402F002042
:102EF000FFFFB40010B5134B13491C68134882B090
:102F000008235822019401F0DFFA044610B120464C
:102F100002B010BD0E4A0F4801A900F00FF9044697
:102F20000028F4D10B48012100F018FA01231946BA
:102F3000094A084800F068F9084B012220461A7037
:102F400002B010BD60F40300E82E0020D82E00204F
:102F5000E92C0300E0270020FFFF7F00502F002016
:102F60006AB19FED097BA1F101010368B1FA81F11A
:102F7000490983ED027BC3E9041200207047072052
:102F8000704700BFAFF30080FFFFFFFFFFFFFFFFB1
:102F9000F0B583B00446002601A817460D468DF80B
:102FA000046000F08DF8D4E90223B3F1FF3F08BFBD
:102FB000B2F1FF3F06D09DF8040000F0A7F83046BC
:102FC00003B0F0BD1C4800F0FFF91C4B1C4A196807
:102FD0005B684018D2E9001243F10003884273EBAA
:102FE000020220D3281843F10003A060E3609DF89B
:102FF000040000F08BF82369A76103B12561114833
:1030000001A901F079FA034650B100220D481A7067
:103010005C6001A901F0A2FA50B9002003B0F0BD34
:10302000042003B0F0BD10F1807043F10003D9E734
:10303000014800F0CDF9F0E7E0270020482F0020FC
:10304000402F0020D82E002030B583B00446002544
:1030500001A88DF8045000F033F8D4E90223B3F14D
:10306000FF3F08BFB2F1FF3F9DF804001BD04FF0B7
:10307000FF334FF0FF32C4E9022300F047F80E4857
:1030800001A901F039FA034650B101220A481A7029
:103090005C6001A901F062FA50B9002003B030BDB4
:1030A000042003B030BD00F031F8284603B030BD35
:1030B000024800F08DF9F0E7D82E0020E02700202C
:1030C00070B4EFF3108472B60D4A9368ABB9012166
:1030D00091600C490C4ED1F8805035401560C1F814
:1030E0008060D1F8845055604FF0FF32C1F88420E1
:1030F000037004B962B670BC70470123F8E700BFE3
:10310000582F002000E100E0FC06FFBD094B9A6843
:103110007AB170B910B4EFF3108172B6064A1C6828
:1031200014605C685460986001B962B65DF8044B45
:1031300070477047582F002000E100E038B5264B5B
:1031400090F805C043F82C20244A254B9B1A254AA9
:1031500002EBCC0CDB089CF804401B04ACBB0468FD
:103160000D88C4F8085591F802C090F904104FEA90
:103170004C1C00295FFA8CFC21DB01F1604101F558
:10318000614181F800C390F90410002909DB164C55
:103190004D094FF0010C01F01F010CFA01F144F848
:1031A0002510417942F8310002EBC10243F00300DF
:1031B0000E4901241471FEF795FB002038BD0C4C1C
:1031C00001F00F0104F801C0DDE743F002000949F6
:1031D000FEF788FB082038BD6C2F002058F803004C
:1031E000D0F80300642F002000E100E070D7030056
:1031F00014ED00E04CD70300036801221A60704709
:10320000036801225A60704770B405684FF4803437
:103210008C4083B0C5F80843056801F1500CC5F82F
:1032200048434FEA8C0C05681FFA8CFC002645F8D1
:103230000C6055F80C500195019D056801F5A871C9
:1032400022F07F4245F821200268C2F8444313B1BE
:103250000368C3F8044303B070BC70472DE9F0471E
:103260004FF48037994603688F4082B0C3F84873A3
:103270000368C3F80873036801F150060D4603EBB9
:10328000810122F07F48D3F80435D1F84025C1F8F8
:103290004035B600B6B2D21A03684FF0000A43F8C0
:1032A00006A022F07F429B590093012A009B04460E
:1032B00044D02368D3F80465C3F84473A8EB06032D
:1032C00023F07F43012B226805F5A87526D042F82C
:1032D00025802168D1F80405A8EB0002C9F1FF138D
:1032E000013A03F57F4322F07F42934212D342B169
:1032F000C1F8447323680020C3F8047302B0BDE82A
:10330000F08708F1010341F825302168D1F8043530
:103310009842EDD00D2002B0BDE8F08708F101031E
:1033200042F825300C4B4FF4806043F0010398477E
:103330002168D1F804359E42DAD0EBE7064B4FF412
:10334000806043F001039847236843F806A09B5927
:103350000193019BADE700BF70F4030002680223F4
:10336000C2F8443311B10268C2F80433704700BF99
:103370000368D3F8040100B97047002282B0C3F893
:103380000421D3F804310193019B012002B070475E
:1033900002684FF4803303FA01F1C2F8481303685E
:1033A000C3F80813704700BF50318900036889B221
:1033B000585800B97047002282B05A505B580193A8
:1033C000019B012002B070470368D3F804057047E1
:1033D00090F90430002B09DB5A09054803F01F035C
:1033E0000121403201FA03F340F82230704700BF58
:1033F00000E100E0024A034B10681B68184700BF59
:10340000642F00206C2F00202DE9F041436888468E
:103410001BB1304AD468A34239D200232E4EA8F8FB
:10342000003001274FF6FF75736803F5805C0833A1
:103430009C450DD87B1C032BA8F8007006F11406E0
:103440004FF00207F0D100201FE09445F2D9134657
:103450001A680132EED05A88033203EB8202944597
:10346000E8D3B3F804E0AE45EFD01C88002CECD0D4
:103470009C68611CE9D00168A14201D01346D7E7DE
:10348000164A4360138903810120BDE8F081126967
:103490009342C2D813F00302BFD1104C058924898E
:1034A000A542BAD105689C68A542B6D10A4C6068AD
:1034B000834203D900F58050834207D3A269934227
:1034C000C1D902F580529342BDD20122A8F8002052
:1034D0000120DAE764280020A82F0020902F002088
:1034E0002DE9F04FA54EDFF8AC828BB0044635686D
:1034F000002D70D02A78531E052B00F25582DFE88C
:1035000003F05D2828030345002C40F083802B79CD
:10351000012B00F05F82022B00F05682002B40F05E
:10352000198102232B71CDE9064405AFEB680593A1
:103530000DF112013846FFF767FF002840F0AE8317
:1035400048F2096400230593C7E90133C7E903334F
:1035500068E0B5F814A0A87D894F002C42D10AEB91
:103560008A0307EB83034FEA8A09B3F808C05C6853
:1035700004EB8C04062800F22C84DFE810F04201F2
:103580008001BC01AB01360193015601002C41D1F1
:1035900098F80C2098F80030002A00F0C58088F8D0
:1035A0000C40013B062B00F2FF81DFE813F0E8023C
:1035B000A502DD01CD01FD019402BC01002C40F00B
:1035C000FA812B79032B00F2A480DFE813F00201CB
:1035D000ED00CB0085006B496B4800F0CFFF05463E
:1035E000306087E7022808D90AEB8A0207EB8202DB
:1035F000EB88118903330B4413814FEA8A0909EBE5
:103600000A02EB8807EB8202C3F57F435189FD3341
:103610000B445381002305AF0593C7E902333B6197
:103620004FF4064406942B78023B042B07D8DFE8BE
:1036300003F0273F3320030005238DF81430534C4B
:1036400004F1100554F8043B384603B19847AC42E6
:10365000F8D14C494C480024346000F0C1FF4C487C
:10366000012101F083F800287FF441AF0BB0BDE8E1
:10367000F08F04238DF81430EB88ADF82030DEE7AE
:1036800001238DF814302B89ADF82030AB88ADF8CC
:103690002230EB680793D2E703238DF81430EB88D0
:1036A000ADF820302B89ADF82230EB680793C6E7E0
:1036B00002238DF814302B89ADF82030AB88ADF89B
:1036C0002230EB680793AB7DA3F10603B3FA83F3D3
:1036D0005B098DF82430B2E72E4B294F5B882E4AC8
:1036E00003EB83030020287107F8230007EB830313
:1036F000948811681C815C68596002230090938053
:1037000014602648264A082301F0DEFC0028ADD0CC
:103710003568244A05AF002305935360C7E9023397
:103720003B6148F20D647DE7072B3FF63AAF01A2FB
:1037300052F823F00B3C0300A3350300A33503002C
:10374000413C0300DB3B0300213903002139030026
:10375000CF3B0300CDE907440594099405AF48F237
:103760000E645FE70C4A0D48002302212B71918003
:103770001168012201F06CFDC8E700BF8C2F00200A
:10378000A82F0020882F0020D02F0020E42F002019
:10379000F42F0020902F0020A02F0020642800206C
:1037A0007CF40300F82F0020A04F3B78022B00F0A0
:1037B000B4823B7D022B00F0C082002305AF9C4AFF
:1037C0000593C7E90233012111703B615360002466
:1037D00028E7984B984A1968984801232B710023D1
:1037E0000093082301F070FC90E7954AAB691360E1
:1037F0009449002310465360FFF706FE002800F0AE
:103800007A820223AB750023009304238B48214660
:10381000EA1801F059FC00283FF428AFAB7D31686D
:10382000022B48F20D6411D902E0294641F61D54DD
:1038300009EB0A0307EB8303B3F808C0EB8809EB35
:103840000A02033307EB820263441381D144EB88FD
:1038500007EB8909C3F57F43B9F80A20FD33134408
:103860000D46A9F80A3005AF002341F61D52059315
:10387000944208BF1C46C7E902333B61D2E6032AE3
:1038800014BF06230523AB75002300936B48211D4D
:10389000042305F1080201F017FC0028BED10BB08B
:1038A000BDE8F08F664B684A5968664B63481C88D0
:1038B0000623AB7500230093042301F005FC0028C8
:1038C000ACD104EB840307EB830301221A740BB021
:1038D000BDE8F08FEB882A690120A87500200090D0
:1038E00004F10C0155489B0001F0EEFB002895D136
:1038F0000BB0BDE8F08F2B695048002B0CBF0123A3
:103900000323AB750023009304F10801042305F1A0
:103910000C0201F0D9FB002880D10BB0BDE8F08F7C
:10392000072388F8003000230093C8F80430414B87
:10393000414A19684148082301F0C6FB0446002C9F
:103940003FF494AE35688EE7B8F80230374F03EB9A
:10395000830307EB8302D368C3B951683748012258
:1039600001F076FC0446EAE7D8F804203148538891
:1039700084880168033300209BB201EB840100902E
:103980009B002E4801F0A0FB0446D8E7052388F8E9
:103990000030284B2948196802229A80002301220E
:1039A00001F056FC0446CAE705AF00230593C7E9BA
:1039B00002333B61D3E605AF1D4A002305935360F4
:1039C000C7E902333B612BE6CDE90744059409942E
:1039D00005AFFCE6164B1B78002B00F07A811B48E4
:1039E000B0F80490B9F1010F12D8104FC9F10003DB
:1039F00003F014033B44A2461A784AB309F10109C3
:103A00001FFA89F2012AA0F8049003F11403F3D9F4
:103A10000E480822002109F0F6FB0023CDE9073308
:103A200035680593099305AFFCE500BFA82F00207A
:103A3000F82F0020A02F002084F403006428002029
:103A40007C2F0020782F002078F40300702F0020B6
:103A50005A68016802F5805E002900F037814A88C3
:103A6000033201EB8201714532D20A6801324FF60E
:103A7000FF7B2DD0B1F802C00CF1030C01EB8C0CD4
:103A8000E64525D38A8803925A451ED0B1F800B086
:103A9000BBF1000F19D08A68013216D0B5F806C004
:103AA000039A01609445DAD100230093A44AA54803
:103AB000042301F009FB002840F01A8109EB890971
:103AC00007EB890701233B74D0E5E64500F21B8133
:103AD000C0F800A092E7B8F802209B4F930013446F
:103AE00007EB8303994A59689648002300930823FB
:103AF00001F0EAFA044622E7B8F80200924FD8F83B
:103B0000042000EB800307EB83035968830001F571
:103B1000805C002A40F0AB8001F10802944540F23D
:103B2000AD80146801344FF6FF7E00F0A780558801
:103B3000033502EB8505654500F2A0809488744545
:103B400000F0E3801488002C00F0DF8094680134DA
:103B500000F0DB80C8F8042053887D480333848854
:103B60000168002000909BB2032001EB840188F8DB
:103B700000009B00734801F0A7FA0446DFE698F8BE
:103B80000A304BB1704FF868002388F80A3018B932
:103B90003B7C002B40F01B8198F80B3053B16A4FEF
:103BA000002388F80B303B6A23B997F82430002BA8
:103BB00040F0D28005AF0023059388F80030C7E9B4
:103BC0000233A8F80230C8F804303B61FFE5012356
:103BD00088F8003098F80A30D3E7B8F802205A4F36
:103BE0005B4902EB820307EB830308685C6858605B
:103BF0008888188102200C608880002119740623AF
:103C000088F8003002FA00F369E74F4FB8F808303F
:103C10003A7D0133A8F80830B2FA82F23B785209B3
:103C2000B3FA83F388F80B2000225B09A8F802207E
:103C300088F80C20012288F80A3088F80020A0E7D4
:103C4000B8F80200404F424CD8F8042000EB800343
:103C500007EB830355885968A38803332B44A3805B
:103C6000022388F8003001F5805C00FA03F35488E1
:103C7000033402EB840294453FF653AF034407EB51
:103C80008303DB68002B7FF481AE042288F80020D8
:103C90002C48012201F0DCFA044650E60699284A35
:103CA0008B88EB800B882B81264800940423BDF879
:103CB000124001F009FA60BB234B04EB840403EBD0
:103CC000840301221A740BB0BDE8F08F02F10801E1
:103CD000C9E621461F48082209F095FA48F2016416
:103CE00005AF0023059335683B61C7E9023399E4CA
:103CF00048F20D64F4E7CDE907000590099005AF9F
:103D000048F209648EE46146AFE66545B6D22A46BC
:103D100007E7356848F20D6414E4002303EB8303DE
:103D200007EB830207485168002207F8232000921E
:103D30000823064A01F0C8F9E8E40123EEE700BFD2
:103D400078F4030064280020A82F00207CF40300EE
:103D5000A02F0020702F002001200346A8F8023079
:103D600000EB800307EB8303D8F804205968830035
:103D700001F5805542B35488033402EB8402954226
:103D80007FF67CAF146801344FF6FF7E3FF476AFC8
:103D9000B2F802C00CF1030C02EB8C0C6545FFF489
:103DA0006DAF9488744505D014881CB194680134B3
:103DB0007FF4D0AE65457FF661AF62464FF6FF7E79
:103DC00014680134E4D159E701F10802D7E703464A
:103DD000C4E7294648F20E6430E500BF4068FFF7AB
:103DE0007FBB00BF28B370B50D4682B0E9B10DF1BD
:103DF00006010446FFF708FB18B948F2096002B053
:103E000070BDBDF806300C48666803EB83030121E2
:103E100000EB830000F09EFC2E606368012200200E
:103E20000C336B60A27202B070BD48F2046002B045
:103E300070BD48F204607047B42F002010B310B575
:103E400082B00DF106010446FFF7DEFAB0B1BDF80D
:103E500006300E4A03EB830302EB8303DA684AB1B0
:103E6000A27A3AB1DA680021013A0846DA60A17212
:103E700002B010BD48F2056002B010BD48F2096002
:103E800002B010BD48F20460704700BFA82F0020A8
:103E90002DE9F0474F4B1B7882B083B30C460029C5
:103EA00045D00A884FF6FF739A4222D04B8803B35D
:103EB0004D6815F0030534D1B1F8089009F10303FA
:103EC0009BB240F2FE32934234D8434A11780746FF
:103ED00039B9508911890144194489B2B1F5806F0B
:103EE0002BD9117D89B148F20665284602B0BDE89C
:103EF000F08748F20365284602B0BDE8F08748F233
:103F00000165284602B0BDE8F087D08B918B014453
:103F1000194489B2B1F5806FE5D84FF0010AD04657
:103F20000DE048F20265284602B0BDE8F08748F28D
:103F30000465DAE748F20865D7E7AA46A8460AEB1F
:103F40008A0A02EB8A0A034401A92448AAF80A3023
:103F500000F0D2FA1C220646002109F054F96EB393
:103F6000A6F8148002234FF00008337086F81680FC
:103F70006368336101211A4800F0ECFBF06023888C
:103F8000338163881548B38001A9A6F80690A6F886
:103F90000A8000F0E3FA47B1C7F80480F268114BD9
:103FA0003A601B8987F80A803B810F48012100F0A5
:103FB000C5FB002899D1FFF793FA96E7BAF80A30C3
:103FC000C9F57F4909F1FD099944AAF80A9048F218
:103FD00007658AE7F82F0020A82F0020D02F0020A7
:103FE000E02F0020902F0020F42F00202DE9F04733
:103FF00082B068B3514B1B78002B41D00C4639B3CB
:104000000A884FF6FF739A4234D04B8893B34E68B8
:1040100016F003063AD1B1F8089009F103039BB2F8
:1040200040F2FE32934234D8454A1178054639B9F8
:10403000508911890144194489B2B1F5806F2BD997
:10404000117D59B148F20666304602B0BDE8F087EE
:1040500048F20466304602B0BDE8F087D08B918B01
:104060000144194489B2B1F5806FEBD84FF0010AD1
:10407000D04613E048F20366304602B0BDE8F08750
:1040800048F20166304602B0BDE8F08748F20266A9
:10409000DAE748F20866D7E7B246B0460AEB8A0A82
:1040A00002EB8A0A034401A92648AAF80A3000F064
:1040B00023FA1C220746002109F0A5F8002F30D072
:1040C000A7F8148003234FF000083B7087F8168090
:1040D00063683B6101211C4800F03CFBF8602388C9
:1040E0003B816388BB800423A7F80690BB752B68CF
:1040F000BB6101A91348A7F80A8000F02FFAC5F8A0
:104100000480FA68114B2A601B89114885F80A80DF
:104110002B81012100F012FB002895D1FFF7E0F977
:1041200092E7BAF80A30C9F57F4909F1FD099944C7
:10413000AAF80A9048F2076686E700BFF82F002029
:10414000A82F0020D02F0020E02F0020902F00204B
:10415000F42F0020194B1B780BB370B54FF6FF738B
:10416000984282B0044621D001A9154800F0C4F954
:104170001C220546002109F046F89DB105230126C1
:1041800001A90F482B702E71EC8000F0E7F90D4863
:10419000314600F0D3FA68B1002002B070BD48F299
:1041A0000160704748F2076002B070BD48F20360DA
:1041B00002B070BDFFF794F9EEE700BFF82F0020C2
:1041C000D02F0020F42F00202DE9F0473E4C24781A
:1041D000002C71D0002A73D0002B71D09D88012D46
:1041E00023D8C5F1000C394C0CF0140C8A4614F895
:1041F0000C70A44466465FB9DCF804E01C680EF558
:104200008057D4B90EF10804BC421ED300241C60B0
:104210000135ADB2022D9D8006F1140605D034782B
:10422000B446002C3FD002229A8048F20960BDE8D3
:10423000F087DCF8047007F58057B4F802E00EF15F
:10424000030E04EB8E04BC42E0D2216801314FF62C
:10425000FF78DBD0B4F802E00EF1030E04EB8E0E13
:10426000BE45D3D8B4F80490C14518D0B4F8008046
:10427000B8F1000F13D0A168013110D01C60A788DD
:104280008742D6D127885745D3D1A16811601968D4
:104290000F4B51601B8913810020BDE8F087BE459C
:1042A000B4D27446D1E7DCF804E01C6801250EF5B1
:1042B0008057002CA6D0C0E748F20160BDE8F08727
:1042C00048F20460BDE8F087F82F0020A82F0020F6
:1042D000902F0020384B1B78002B5AD0002965D036
:1042E000002A63D0B2F804C0BCF1010F61D82DE9F7
:1042F000F041324B0CF1010ECCF1000C0CF0140C1F
:104300001FFA8EFE9C4400279CF8003073B1A2F87F
:1043100004E00EF1010E1FFA8EFEBEF1030F0CF148
:10432000140CF1D148F20960BDE8F081DCF80450CA
:10433000136805F58054DBB905F108039C421DD8CC
:104340001760E4E75E88033603EB8606A642F7D8DB
:104350009D88454519D01D88BDB19D68013514D093
:1043600013601C88844217D0DCF8044004F58054A4
:104370005D88033503EB85039C42E1D91D68013557
:104380004FF6FF78DED11760C1E7A642D8D2334698
:10439000F4E748F2016070479B680B601268084BB5
:1043A0004A601B890B810020BDE8F08148F204605F
:1043B000704748F209607047F82F0020A82F0020AE
:1043C000902F0020384B1B78002B5AD0002965D045
:1043D000002A63D0B2F804C0BCF1010F61D82DE906
:1043E000F041324B0CF1010ECCF1000C0CF0140C2E
:1043F0001FFA8EFE9C4400279CF8003073B1A2F88F
:1044000004E00EF1010E1FFA8EFEBEF1030F0CF157
:10441000140CF1D148F20960BDE8F081DCF80450D9
:10442000136805F58054DBB905F108039C421DD8DB
:104430001760E4E75E88033603EB8606A642F7D8EA
:104440009D88454519D01D88BDB19D68013514D0A2
:1044500013609C88844217D0DCF8044004F5805433
:104460005D88033503EB85039C42E1D91D68013566
:104470004FF6FF78DED11760C1E7A642D8D23346A7
:10448000F4E748F2016070479B680B601268084BC4
:104490004A601B890B810020BDE8F08148F204606E
:1044A000704748F209607047F82F0020A82F0020BD
:1044B000902F002020B119B103680B6000207047D5
:1044C00048F20460704700BF99B110B4B2FBF3F436
:1044D00003FB1424A4B244B9C0E9001484608281AF
:1044E000C38120465DF8044B704709205DF8044BFA
:1044F00070470E20704700BF10B483B050E8013FF2
:104500001FFA83FCC489A4448489A44528BFACEB6A
:10451000040C0489A44502BFBFF32F8F002207E0DB
:10452000CCEA030C40E801C4002CE7D14FF00102B3
:104530008DF803200193019C9DF803200C6032B19B
:10454000006810FA84F003B05DF8044B704702F085
:10455000FF03184603B05DF8044B70470A884B8888
:104560009A4201D00020704750E8012FC2EA02426F
:1045700040E80123002BF7D10120704710B483B02D
:1045800050E8023F1FFAA3FCC488A44502BFBFF352
:104590002F8F00220EE0C489A4448489A44528BF3B
:1045A000ACEB040CC3EA0C4C40E802C4002CE7D18D
:1045B0004FF001028DF803200193019C9DF8032028
:1045C0000C6032B1006800EB144003B05DF8044B9E
:1045D000704702F0FF03184603B05DF8044B7047C4
:1045E0000A884B889A4201D00020704750E8022F79
:1045F000C2EA224240E80223002BF7D10120704793
:104600004B0901F01F024FF0010C0CFA02F100EB14
:10461000830000F07BB800BF4B0910B5012201F008
:104620001F0402FA04F100EB830000F063F8E0409D
:1046300000F0010010BD00BF01F01F02012303FACA
:1046400002F24B0900EB8300D14300F06BB800BFCE
:104650004B0901F01F0150F82300C84000F0010091
:10466000704700BF2DE9F04F01F1FF3B83B04FEAE7
:104670005B130E460546019300274FF0010955F8DC
:10468000274005EB870AE44394FAA4F4E4B1B4FAB2
:1046900084F44FEA4718444404F01F0B6009A64213
:1046A00009FA0BF105EB80000ED900F023F820FA8F
:1046B0000BF0C30710D5DAF80040E44394FAA4F4F1
:1046C00014B1B4FA84F4E6E7019ABA4207F101039F
:1046D00001D01F46D3E73446204603B0BDE8F08F33
:1046E000034653E8000F0A4643E8002C9CF0000FF5
:1046F000F7D17047034653E8000F40EA010243E850
:10470000002C9CF0000FF6D1704700BF034653E821
:10471000002F42EA010043E8000C9CF0000FF6D1A4
:10472000704700BF034653E8002F02EA010043E848
:10473000000C9CF0000FF6D1704700BF034653E811
:10474000000F00EB010243E8002C9CF0000FF6D1B3
:10475000704700BF034653E8002F02EB010043E817
:10476000000C9CF0000FF6D1704700BF034653E8E1
:10477000002FA2EB010043E8000C9CF0000FF6D1E3
:10478000704700BF0346012253E8001F41EA0200C0
:1047900043E8000C9CF0000FF6D17047034600225E
:1047A00053E8000F00EA020143E8001C9CF0000FF0
:1047B000F6D17047D0B110B4D0E90112521A046892
:1047C000D2B2531E2160DBB252B101680A6803F114
:1047D000FF3C541C0C6013705FFA8CF3FF2BF4D178
:1047E0000368002018715DF8044B70470E20704775
:1047F00030B583B0044600250DF107008DF8075051
:10480000FEF75EFCD4E900311A688A4210D9511EC5
:1048100019602168A3680D6812F8012C208A5B1BBF
:10482000E56800FB02550A79DBB29A4238BF0B718A
:104830009DF80700FEF76AFC284603B030BD00BFB4
:1048400030B5054683B000230DF107000C468DF806
:104850000730FEF735FC2A681368591C1160E968B7
:104860002A8A641AB4FBF2F41C709DF80700FEF764
:104870004DFC03B030BD00BF826842B110B50446A4
:1048800043690168006998470023A36010BD704721
:104890000EB400B582B0039921B104AB01AA019313
:1048A00000F0BAF802B05DF804EB03B0704700BF47
:1048B0002DE9F04F0F4683B09742DDF830A00D99F7
:1048C000164605469946C0F0A2803B464FF00108C7
:1048D000B3FBF6F39E4208F10108F9D9C84538BF89
:1048E000C84611F00103AA68009302D1BAF1000F83
:1048F0006BD12B68501CB9F1010F4FF0010406D9A0
:1049000009F1FF39B9F1010F06FB04F4F8D8B7FB40
:10491000F4FC664505D806FB04F4B7FBF4FC6645D9
:10492000F9D9DFF8F0B04FF00D0909E0B442B4FB5B
:10493000F6F318D3AA681C462B68B7FBF4FC501C8E
:104940001BF80C100A2904FB1C772AD0A860995484
:10495000D5E901329A42E9D32846FFF78DFFB4FB2F
:10496000F6F3B442E6D2009BC3B1BAF1000F15D002
:10497000C24513D9202401E0C2450FD0AB682A6894
:10498000591CA960D454D5E901329A420AF1FF3A80
:10499000F2D32846FFF770FFC245EFD103B0BDE860
:1049A000F08FA86003F80290D5E901329A4202F133
:1049B000010001D22B68C9E728460191FFF75CFF8F
:1049C000AA682B680199501CC0E78B0719D42024D2
:1049D000D0452B6802F101008DD2A8609C54D5E926
:1049E00001329A420AF1FF3A03D2BAF1000FEFD135
:1049F0007FE72846FFF740FFAA68BAF1000FE7D12A
:104A000077E7B9F1000F0CBF30242024E0E74FF026
:104A1000010863E78CF40300002900F0A2822DE96D
:104A2000F04F0C7885B0064634B9337B002B40F04C
:104A30000C8205B0BDE8F08F91464D1C4FF00D0A79
:104A400010E00A2CB36800F0C1813268591CB160D3
:104A5000D454D6E901329A4280F096802C78002C0A
:104A6000E3D00135252CECD12A46002712F8013B72
:104A70002D2B00F0A381302B00F0A4812B2B00F014
:104A800094812A2B00F0B181A3F1300109294FF064
:104A900000040DD804EB840403EB44041378A3F161
:104AA000300109291546A4F1300402F10102F1D9BF
:104AB0002E2B2A4600F0A3814FF0000803F0FB01E3
:104AC000682902F101054DD0252B53D0583BDAB2AD
:104AD000202AC3D8202BC1D801A252F823F000BF4E
:104AE000FD4B03005D4A03005D4A03005D4A03007D
:104AF0005D4A03005D4A03005D4A03005D4A03000E
:104B00005D4A03005D4A03005D4A0300194C03003F
:104B1000914B03005D4A03005D4A03005D4A0300B8
:104B20005D4A0300914B03005D4A03005D4A0300A8
:104B30005D4A03005D4A03005D4A03005D4A0300CD
:104B4000F74C03005D4A03005D4A03004D4C03002F
:104B50005D4A0300434C03005D4A03005D4A0300C5
:104B6000FD4B030015F8013B03F0FB02682AF9D066
:104B7000252BABD1B2683168501CB0608B54D6E99C
:104B800001329A42FFF46AAF3046FFF775FE65E7DF
:104B9000D9F800301A1DC9F80020D3F800B08BEA0C
:104BA000EB73A3EBEB73092B40F37A82B948012135
:104BB0001A46632AA0FB03C301F101014FEAD303A4
:104BC000F6DC414538BF414607F00203002C00F0F7
:104BD0007781BBF1000FC0F2DE81780740F11582CA
:104BE000601E1BB1B8F1000F00F04F82FB0700F10F
:104BF0001A82002800F042820446D3E1D9F800105E
:104C000043461022081DC9F8000009683046CDE966
:104C10000047FFF74DFE21E7D9F800301A1DC9F80B
:104C200000201C78B3680A2C7FF40FAF591C32683F
:104C3000B1600D21D154D6E901239342FFF405AFB1
:104C4000CEE0D9F8001043460A22DBE7D9F800305D
:104C50001A1DC9F8002017F00107D3F8008040F0B2
:104C6000FA80B8F1000F03D0404608F00FFB07466A
:104C7000BC4215D94FF0200B01E0BC4210D0B26805
:104C80003368511CB16003F802B0D6E90130984294
:104C900004F1FF34F1D33046FFF7EEFDBC42EED114
:104CA00098F80040002C3FF4D9AEB06847464FF06A
:104CB0000D080A2C034610D03268591CB160D45438
:104CC000D6E90130984280F04D8117F8014F002C51
:104CD0003FF4C4AE0A2C0346EED132680133B36010
:104CE00002F80080D6E901239342E5D33046FFF76E
:104CF000C3FDB368E0E7D9F800301A1DC9F80020F9
:104D0000D3F80080B3683268581C3021B060D154A9
:104D1000D6E90123934280F00181591C3268B160C9
:104D20007821D154D6E901329A4280F0F280B8F16C
:104D30000F0F474603D943461B090F2BFCD801240C
:104D40000823013B012B21464FEA0414F9D1B8FB9B
:104D5000F4F30F2B09D90C02B8FBF4F30F2B04D991
:104D60002401B8FBF4F30F2BFAD8DFF82CB106E0DE
:104D70000F2C4FEA14137FF671AEB2681C46B7FBD6
:104D8000F4F31BF80380B8F10A0F04FB13774DD03E
:104D90003368501CB06003F80280D6E901329A42B1
:104DA000E6D33046FFF768FDE2E747F00407154613
:104DB0002A4612F8013B2D2B7FF45DAE47F0010728
:104DC0001546F5E747F002071546F1E73268591C2A
:104DD000B16002F803A0D6E901239342FFF435AE97
:104DE0003046FFF749FDB3682FE6D9F80030191DAA
:104DF000C9F800101C686B782E2B7FF45DAE5378D9
:104E0000A3F13001092902F101024FF000083FF639
:104E100055AE08EB880803EB480812F8013FA3F1F0
:104E200030010929A8F13008F3D947E63368501C4E
:104E30004FF00D01B0609954D6E901329A42A7D3E0
:104E40003046FFF719FDB268A2E7304605B0BDE86D
:104E5000F04FFFF711BD98F80030002B00F02A81C9
:104E6000B0684746C8F101080A2B014608EB070B5A
:104E700066D03268481CB0605354D6E9013098427D
:104E800051D217F8013F002BEED15C457FF6E6AD1D
:104E9000202706E0CDCCCCCC8CF403005C453FF45D
:104EA000DDADB3683268591CB160D754D6E9013220
:104EB0009A4204F1FF34F1D33046FFF7DDFCEDE711
:104EC000002B59D1FB0700F1A780BBF1000FC0F206
:104ED000DF80AFB1B2683368501CB0602B209854AB
:104EE000D6E901329A4204D330460391FFF7C4FC5D
:104EF000039907F00303022B02D1B8F1000F68D029
:104F0000CDE90047434659460A223046FFF7D0FC18
:104F1000A4E53046FFF7B0FCB26808E73046FFF77B
:104F2000ABFCB368F9E63046FFF7A6FC17F8013F83
:104F3000002BAAD0B0680A2B014608EB070B98D1CA
:104F40000131B16031684FF00D020A54D6E90121F8
:104F500091428ED330460393FFF78EFCB168039BDA
:104F600087E770473046FFF787FC17F8014F002CA2
:104F70003FF474ADB0689CE6B8F1000F22D017F092
:104F8000010349D1BBF1000FC0F2828017F0040485
:104F9000B3D01C469EE7013C002B50D1FA0753D4F6
:104FA000002C75D02023A1420DD2B268501CB060F5
:104FB00030688354D6E90102824204F1FF3454D2AE
:104FC000002CF0D10024BBF1000F61DB780790D5F5
:104FD00080E7002C94D03023A14291D2B268501CBB
:104FE000B06030688354D6E90102824204F1FF3494
:104FF00002D2002CF0D183E730460391FFF73CFC4E
:1050000003993023002CE7D17AE7002B4AD1002FF7
:10501000C8D02046044673E7BBF1000F14DB17F03D
:105020000400F7D00020B2683368541CB4602B240D
:105030009C54D6E901329A42ECD3044654E7B8F1C5
:10504000000F25D0FB073DD5B2683368511CB16015
:105050002D219954D6E901239A42CBF1000B3FF65A
:105060004FAF3046FFF708FC4AE730460391FFF7A1
:1050700003FC03992023002C95D1A3E7BBF1000F7B
:1050800005DB17F004043FF438AF044622E704467A
:10509000B2683368501CB060CBF1000B2D201EE7C6
:1050A00001218EE5B8F1000F06D0FA077FF57AAF3F
:1050B0002046AFE79B46E8E607F00303022B7FF4A8
:1050C0001FAF88E7204694E52DE9F04182B0002823
:1050D00076D01546002A00F083800768002F00F084
:1050E0008E8073B34668D6F80480B3FBF8F608FBED
:1050F0001636002E37D111F0030F43D1AD0750D132
:10510000C568A94211D2464B4648474A4749C01A8A
:105110001024C008A040464B009440F00100FCF76A
:1051200039FF102002B0BDE8F081046901F1FF3EB3
:105130009E44A645E7D8FC68A44602B0BDE8F0410D
:105140006047384B36483B4A3849181AC00809248A
:105150000004374B009440F00100FCF71BFF0920CE
:1051600002B0BDE8F0812F4B2D48334A2F49181A61
:10517000C008092400042E4B009440F00100FCF705
:1051800009FFECE7274B26482C4A2849181A102417
:10519000C008A040264B009440F00100FCF7FAFE46
:1051A000BFE7204B1E48264A2049181A1024C00881
:1051B000A0401F4B009440F00100FCF7EBFEB0E76D
:1051C000184B17481F4A1949181AC0080E24000422
:1051D000174B009440F00100FCF7DCFE0E20A1E725
:1051E000104B0F48184A1149181AC0080E24000421
:1051F0000F4B009440F00100FCF7CCFEEEE7094BAA
:105200000748124A0949181AC0080824000440F047
:105210000100074B0094FCF7BDFE204682E700BF6B
:1052200058F80300E8F8030088D803008CD703007F
:10523000B0F40300D4D7030020D803004CD80300F7
:1052400064D8030084D7030018D80300C0D7030034
:10525000F0B583B0002849D00568002D4FD02AB39F
:1052600046683668771E0F4231D1C768B94210D2FE
:10527000274B2848284A2949C01A1024C008A040B2
:10528000274B009440F00100FCF784FE102003B08F
:10529000F0BD046901F1FF3E06FB02EEA645E7D82A
:1052A0002C69A44603B0BDE8F0406047194B18488C
:1052B0001C4A181AC0081A4B092400041749009404
:1052C00040F00100FCF766FE204603B0F0BD114B34
:1052D0000F48154A1149181A1024C008A040104B55
:1052E000009440F00100FCF755FECFE7094B084859
:1052F0000E4A181AC0080A4B0E240004DEE7054BBC
:1053000003480B4A181AC008054B08240004D5E7C7
:1053100058F80300E8F80300D8D803008CD703003E
:105320009CF40300D4D70300B0D8030084D7030053
:10533000C0D7030029DF704728DF7047034B187A76
:105340000122B0FA80F05A744009704708300020FA
:1053500030B53F4C237A87B0002B34D03D4D2868C0
:10536000022323720379002B37D0012B1DD0026852
:10537000936883B10023CDE90233009304930323A0
:105380000193836805930379002B53D0012B45D0FB
:105390009368684698473049304800232372636019
:1053A00007B0BDE83040FFF71BB9D0E90320104437
:1053B000FFF7C2FF28B311282CD028680268936831
:1053C000002BD7D1E7E724492448224DFFF7D6F830
:1053D00028600028C4D160601EE0D0E90523D21AFD
:1053E000B2F5805F28BF4FF48052D0E903109208D5
:1053F000012A38BF012219441844FFF79BFF0028F7
:10540000D9D1237C43B90146022007B0BDE8304022
:1054100000F026B80123237207B030BD02238DF8B7
:105420000030C368416904911B0302939368684686
:105430009847B0E701238DF800300369C1680293F3
:105440004369CDE90313684693689847A3E700BF13
:105450000830002004300020003000201C300020E4
:10546000831E012B48D810B5364C237A86B0002B0A
:1054700040D0022B37D1032844D0334B00211B6886
:10548000E1601A79002A4DD0012A2CD1D3E90420F9
:10549000013282421A6126D12172002005E02A4B96
:1054A00000221B68E26022720D2019688A68B2B17E
:1054B0000022CDE90222009204929A68019005929E
:1054C0001A792AB3012A07D102228DF80020DA685E
:1054D00058690490120302928B68684698471B49EA
:1054E0001B48FFF77DF8637C3BB906B0BDE8104070
:1054F000FFF72EBF06B010BD704706B0BDE81040E4
:1055000007F056BCE3680133082BC8D8E360EAE72C
:1055100001228DF800201A690292DA685B69CDE9F0
:105520000323D9E7D3E90501A0EB010CBCF5805FAB
:1055300094BF614401F5805188429961D3D12272B0
:10554000ABE700BF0830002004300020003000200E
:105550001C30002000F0FD03012B00D0704730B557
:105560003C4CA0F10100B0FA80F0237A00224009FF
:1055700087B062742074002B41D0374D2868022315
:1055800023720379002B44D0012B24D00268936846
:10559000BBB10023CDE902330093049303230193AD
:1055A00083680593037903B3012B07D102238DF898
:1055B0000030C368416904911B03029393686846F5
:1055C00098472649264800232372636007B0BDE848
:1055D0003040FFF705B8D0E903201044FFF7ACFED8
:1055E00070B3112828D02868D0E701238DF8003047
:1055F0000369C16802934369CDE90313DEE71749E4
:105600001748154DFEF7BAFF28600028B7D1606033
:1056100014E0D0E90523D21AB2F5805F28BF4FF419
:105620008052D0E903109208012A38BF01221944A0
:105630001844FFF77FFED3E70123237207B030BD84
:10564000237C002BFAD10146022007B0BDE8304090
:10565000FFF706BF08300020043000200030002093
:105660001C300020FFF7A6B82DE9F843048ACF1CB0
:10567000043C27440646B7FBF4F7FFF7B9F898B3A4
:10568000FFB24FF48073013F81468380C48006607F
:105690002CD00346002507E00134AF4289F80540CD
:1056A000C8F80000066021D030469846FFF7A0F801
:1056B000013599F8054003460028EDD1611ED9F85F
:1056C000006016D04A46013399421268FBD1176830
:1056D00054B1002501E0B1463668494638460135E7
:1056E000FFF7AEF8AC42F6D84FF000094846BDE8E7
:1056F000F88349463046FFF7A3F8F5E70121043067
:10570000FFF728B82DE9F041012104460430FFF7E6
:105710002DF810F0FF0301D0BDE8F081677926680D
:10572000791E15D02246013399421268FBD1D2F876
:105730000080002FF0D0002501E034463668214675
:1057400040460135FFF77CF8AF42F6D8BDE8F0815E
:1057500021463046BDE8F041FFF772B82DE9F84325
:105760008846C788417907FB01F1043902EB030C35
:105770001E1D6145154638BFCD1AB7420446B6FB1B
:10578000F7F207FB126002D8013A2468FCD13E1AF6
:10579000AE4228BF2E469DB14FF000090430AD1B2C
:1057A000324608EB0901204407F062FDAF42B144E4
:1057B00024683E464FF0000028BF2E46002DEDD154
:1057C000BDE8F8832DE9F8430446C788407907FB14
:1057D00000F0043802EB030C1E1D6045154638BF6F
:1057E000C51AB7428846B6FBF7F207FB126102D82A
:1057F000013A2468FCD17E1AAE4228BF2E469DB1E4
:105800004FF0000904312144AD1B324608EB09007A
:1058100007F02EFDAF42B14424683E464FF0000130
:1058200028BF2E46002DEDD1BDE8F88341DF70473B
:10583000064A074B10B5002414701C60BFF35F8F3D
:105840000449054800F042F8204610BD34300020DD
:1058500038300020C4F403002C30002000B583B0A1
:1058600000230DF107008DF80730FDF729FCF1EE5C
:10587000103A23F09F03E1EE103ABFF35F8F0B4B1A
:105880004022C3F884219DF80700FDF73FFC07F094
:105890009FFA28B920BF40BF20BF03B05DF804FBCA
:1058A00003B05DF804EBFFF7C1BF00BF00E100E00B
:1058B0008268002393608268136182685361826802
:1058C000D3608268536082681360704701600B6820
:1058D00043604A68934208BF00234360704700BF9B
:1058E000436843B1026891680B4443605268934235
:1058F00004BF00234360704770B5446823680D46B9
:105900005BB1064602E01C461B6833B11846B2681C
:105910002946904723680028F5D12B60256070BD8B
:105920004368186808B102681A60704743681868CD
:10593000704700BF4368186818B908E0034600685C
:1059400028B18842FAD102681A6001207047704776
:105950000E49A1F5947205E052F83330984238BFF1
:10596000614607D28B1A1B11914202EBC30CF3D88C
:105970000748704702D90CF10802F3E7DCF804008D
:10598000034B002808BF1846704700BFF8F5030016
:10599000F8F5030030B50A4B0A4C53F8213054F89F
:1059A0002110027885B0D0E901548DF80020C2683A
:1059B00001958DF8084003926846984705B030BDC0
:1059C000483000204030002030B50A4B0A4C53F8D4
:1059D000213054F82110027885B0D0E901548DF8B7
:1059E0000020C26801958DF80840039268469847E8
:1059F00005B030BD4830002040300020F0B5184BD5
:105A0000067889B043F82620164B0446487F9855FF
:105A10001546154A8E46096942F8261022789F5C81
:105A2000BEE80F00EC46ACE80F009EE80F008CE8E3
:105A30000F0004964FB1002D0C4A694608BF2A4654
:105A4000201D01F059F809B0F0BD002D084A694643
:105A500008BF2A4604F10C0000F0B2FD09B0F0BD09
:105A6000483000203C300020403000209559030091
:105A7000C959030030B5274C94F86A3083B0002B25
:105A800044D16FF02F0104F1300304F1600C091BC5
:105A9000CA185009012836D04FF0FF3020FA02F220
:105AA000D20730D401336345F2D14FF0FF304FF0CD
:105AB000FF314FF0FF33C4E90001C4E90201C4E93A
:105AC0000401C4E906010622002113482366C4E943
:105AD0000833C4E90A3307F096FB104BC02283F861
:105AE000062340221A600E4B0020C3F87C01D3F835
:105AF0007C21019201214FF00042019D84F86A103F
:105B0000C3F8042303E0FF221A70CBE7082003B098
:105B100030BD00BF50300020B430002000E100E074
:105B200000600040034B93F86A00003818BF012062
:105B3000704700BF5030002070B5814B03EB000E62
:105B40009EF930C0BCF1000F55DA91F802C01CF08C
:105B5000020FCCF340053DD11C6A013400F0C8802F
:105B60005C6A013400F0CB809C6A013400F0DB8079
:105B70004FF0080E0C244FF00B0C53F82C6001363C
:105B80003DD00EF1040EA64522D21E69013634D056
:105B90005E69013600F0A6809E69013600F0A5809E
:105BA000DE69013600F0B280082C11D01C6A013485
:105BB00000F0C0805C6A013400F091809C6A01347E
:105BC00000F0BB80DC6A013408BF4FF00B0C16D02C
:105BD000042070BD1C68013400F09B805C680134B7
:105BE00000F09C809C68013474D04FF0000E0824B3
:105BF0004FF0030CC1E7082070BD4FF0040C1C18D7
:105C000043F82C204FFA8CF284F8302015B99C44CC
:105C10008CF8580091F802C01CF0040F22D11CF03F
:105C2000010F48D01F2887BF464C00F01F050546CE
:105C30004FF0A04404EB8504D4F8005725F002058A
:105C4000C4F80057404DC40800F0070615F804E0FA
:105C50004FF0010C0CFA06FC4CEA0E0C05F804C0DF
:105C600091F802C009781CF0020F1AD0930003F1DA
:105C7000804303F5C0430202D3F8100520F44F30EF
:105C800020F44070C3F810050904D3F8100502F49D
:105C90007C5201F440310A430243C3F8102500202E
:105CA00070BD083A43FA82F292F8603043EA8113F9
:105CB00082F86030F3E71F284D7887BF214E00F04F
:105CC0001F0404464FF0A04604F5E074AD0046F80A
:105CD0002450B7E79A6002228EF830209AE74FF0FE
:105CE000090C8CE74FF0050C89E74FF0060C86E7AE
:105CF0004FF0080C1A628EF830C0624687E74FF00A
:105D0000090C5A628EF830C0624680E74FF0070CEB
:105D100075E71A6000228EF830207BE75A60012276
:105D20008EF8302076E74FF00A0C9A628EF830C079
:105D300062466CE74FF0080C61E74FF00A0C5EE733
:105D40005030002000030050B430002030B4374CF5
:105D500004EB000C82B09CF93030072B11DD23449A
:105D600093F858309B09032B35D0012B0CBF4FF40F
:105D700000324FF440321F2849D900F01F002C4B4D
:105D800035E0DAB2072A23D8980000F1804000F508
:105D9000C04003F140029200D0F8105592B202F1D7
:105DA000804202F5C04245F00105C0F810550020C0
:105DB000106012680192019A51B19CF9302054F898
:105DC00022202AB11B49012202FA03F3C1F804334D
:105DD00002B030BC70471F281CD84FF0A0421346B9
:105DE000D2F81025C24002F001020232120403EB85
:105DF0008003D3F8001721F44031C3F80017D3F81B
:105E000000170A43C3F8002702B030BC70474FF0B8
:105E1000A043ECE7064BD3F8102500F01F00C2406A
:105E200002F0010202321204A9E700BF5030002044
:105E300000030050006000401F288ABF054B4FF050
:105E4000A04300F01F00D3F8103523FA00F000F053
:105E500001007047000300502DE9F047002384B093
:105E6000CDE90233C94AD2F80011012900F04F826E
:105E70001E46C64BD3F80421012A00F03982C34BD9
:105E8000D3F80821012A00F02482C04BD3F80C215A
:105E9000012A00F00F82BD4BD3F81021012A00F037
:105EA000FA81BA4BD3F81421012A00F0E581B74BEF
:105EB000D3F81821012A00F0C881B44BD3F81C3163
:105EC000012B00F06981B14BD3F87C21012A05D068
:105ED000002E40F08B8104B0BDE8F0870022C3F8AB
:105EE0007C21D3F87C3101934FF0A042019BD2F882
:105EF0002015A74B0291C2F82015D3F82025039254
:105F0000C3F82025002E40F06F81A24CA04E012541
:105F10004FF0A04794F960305A1C46D0C3F3C20139
:105F2000694403F0070291F808C005FA02F21CEA7E
:105F3000020FD9B203F03F0037D01F2800F275815D
:105F400003464FF0A04909EB830205FA03F3D2F8A8
:105F500000C7D2F800E72EF4403EC2F800E704EB99
:105F6000000ECCF3014C9EF930E0D2F800A754F8B3
:105F70002E80BCF1020F14BF4FF4003E4FF4403EA0
:105F80004EEA0A0EC2F800E7C9F82035B8F1000F52
:105F90000BD08909032900F0D481BCF1020F00F075
:105FA000CD81BCF1030F00F0DB8194F96130581C06
:105FB00046D0C3F3C201694403F0070291F808C058
:105FC00005FA02F21CEA020FD9B203F03F0037D003
:105FD0001F2800F22E8103464FF0A04909EB8302EF
:105FE00005FA03F3D2F800C7D2F800E72EF4403EDA
:105FF000C2F800E704EB000ECCF3014C9EF930E050
:10600000D2F800A754F82E80BCF1020F14BF4FF451
:10601000003E4FF4403E4EEA0A0EC2F800E7C9F8CF
:106020002035B8F1000F0BD08909032900F08E81CB
:10603000BCF1020F00F08781BCF1030F00F09481E6
:1060400094F96230591C46D0C3F3C201694403F08D
:10605000070291F808C005FA02F21CEA020FD9B251
:1060600003F03F0037D01F2800F2E78003464FF0CF
:10607000A04909EB830205FA03F3D2F800C7D2F86E
:1060800000E72EF4403EC2F800E704EB000ECCF32C
:10609000014C9EF930E0D2F800A754F82E80BCF1F4
:1060A000020F14BF4FF4003E4FF4403E4EEA0A0E7A
:1060B000C2F800E7C9F82035B8F1000F0BD0890904
:1060C000032900F03481BCF1020F00F02D81BCF1F6
:1060D000030F00F0418194F963305A1C46D0C3F39A
:1060E000C201694403F0070291F808C005FA02F200
:1060F0001CEA020FD9B203F03F0037D01F2800F28C
:10610000A08003464FF0A04909EB830205FA03F390
:10611000D2F800C7D2F800E72EF4403EC2F800E7FC
:1061200004EB000ECCF3014C9EF930E0D2F800A74E
:1061300054F82E80BCF1020F14BF4FF4003E4FF410
:10614000403E4EEA0A0EC2F800E7C9F82035B8F121
:10615000000F0BD08909032900F0EE80BCF1020F7B
:1061600000F0E780BCF1030F00F0F280D7F8203593
:106170000293C7F82035D6F8202503921343C6F8BA
:1061800020257FF4C7AE04B0BDE8F0870060004072
:106190000003005050300020754BD3F80423110643
:1061A0007FF591AE0022C3F81C21D3F81C21009288
:1061B000D3F87C31009A012B46F0800616D16C4B47
:1061C0000022C3F87C21D3F87C3101934FF0A04228
:1061D000019BD2F82015674B0291C2F82015D3F825
:1061E00020250392C3F8202546F00046624F002484
:1061F0000125A30003F18043354203F5C0430BD0D2
:10620000D3F8100557F82420D3F81015C0F3052053
:10621000C1F3014102B190470134082C4FEA450512
:10622000E7D1002EBFF657AE6FE603F01F03B1466D
:1062300089E603F01F03B146D0E603F01F03B14621
:1062400017E703F01F03B1465EE7D3F804235006B7
:106250007FF533AE0022C3F81821D3F8182100923D
:10626000D3F81C210099012A46F0400694D0D3F8B7
:106270007C31012BBAD1A2E7D3F8042394067FF531
:1062800016AE0022C3F81421D3F814310093009BFA
:1062900046F020060BE6D3F80423D5067FF501AEC1
:1062A0000022C3F81021D3F810310093009B46F070
:1062B0001006F6E5D3F8042317077FF5ECAD0022AE
:1062C000C3F80C21D3F80C310093009B46F008066C
:1062D000E1E5D3F8042352077FF5D7AD0022C3F8D8
:1062E0000821D3F808310093009B46F00406CCE562
:1062F000D3F8042391077FF5C2AD0022C3F804212F
:10630000D3F804310093009B46F00206B7E5D2F8BB
:10631000046316F001063FF4ACADC2F80031D2F8C8
:1063200000310093009BA4E501297FF4D4AEC0475F
:10633000D1E601297FF41AAFC04717E701297FF49E
:1063400034AEC04731E601297FF47AAEC04777E624
:1063500002297FF40BAFEFE702297FF4BCAEE6E73A
:1063600002297FF422AEECE702297FF469AEEDE763
:10637000006000400003005050300020014B1B68BB
:10638000184700BFBC300020104B98421BD110B5FD
:1063900082B000230DF107008DF807300C46FCF7A2
:1063A0008FFE0B4B9DF807001A793AB901221C6049
:1063B0001A71FCF7ABFE002002B010BDFCF7A6FE80
:1063C000112002B010BD0020704700BF0020004027
:1063D000BC300020034B984203D1034B00221A60CB
:1063E0001A71704700200040BC30002000000000FF
:1063F00010B5714AD2F8043399058AB068D5D2F83D
:106400002431002B64D00023C2F82431D2F8243187
:1064100001934FF40171694B0198C2F8081393F886
:10642000291009B901215160634902228DF8182011
:10643000D1F88024C1F880249FED5D7B9969D868EC
:106440000790CDE9081283ED067BD3E9001206A878
:106450009047594AD2F81C31C3B1584B5869196A50
:1064600088426AD993F8281001F0FF00002964D10E
:10647000C2F81C01D2F81C11039103999C68186A98
:10648000196A205C01311962C2F81C054A4AD2F827
:106490004431DBB10021494BC2F84411D2F8440128
:1064A00093F829100090009809B1012111609A69B0
:1064B00062B1D8685C6A00210122CDE907049961C4
:1064C0008DF8182006A8D3E9001290470AB010BD35
:1064D000394AD2F804335B07BBD5D2F80831002B18
:1064E000B7D0364B996900293ED00021C2F8081177
:1064F000D2F8081104910499D868596AD2F818257D
:1065000042545A6A996901325A625A6A8A42A0D13F
:10651000DA691968002A30D0D8689A611A695C6A09
:106520000790DA60002001220894D86158625C6804
:106530008DF8182006A8A0478BE71F4A0020C2F854
:106540001C01D2F81C210292029A5A69002A9DD09D
:10655000D3E901215C698DF81800CDE90714586171
:10656000196806A8904791E7C2F80811D2F8080107
:1065700005900598D2F81825C7E793F8292012B995
:106580000D4A012050600C4A4FF40170C2F8080314
:10659000586ADA6800249C610124CDE907205B6811
:1065A0008DF8184006A8984753E700BFAFF3008066
:1065B000000000000000000000200040C830002063
:1065C0002DE9F041724F06792C2303FB067382B04C
:1065D00093F82A30002B40F09E8005460C46006858
:1065E0006C499046FFF7D0FE002840F09080236869
:1065F000591C19D01F2B4FF001028ABF66494FF07A
:10660000A04103F01F0302FA03F3C1F80835236821
:106610001F2B86BF03F01F035F4A4FF0A04203F514
:10662000E073032142F8231063685A1C0BD01F2B20
:1066300086BF03F01F03584A4FF0A04203F5E073F2
:10664000002142F823102B68A269C3F82425227D7B
:10665000637D13432A68C2F86C35D4E900122B68B5
:10666000C3F81425C3F80C15237D012B5CD02C2313
:1066700006FB03F3FA18C2F804802269FA502B686B
:10668000B8F1000F2DD00021227FC3F81C11D3F8E0
:106690001C310093009B2B68C3F84411D3F844319C
:1066A0000193019B2B683D49C3F804132B6843F306
:1066B00007335201002BD2B231DB03F1604303F503
:1066C000614383F800232B6843F30732002A08DB79
:1066D00033495409012302F01F02934041F824304A
:1066E0002B680422C3F800252C2303FB06F606F1D1
:1066F000180200233E44B918BB5001224B6086F8B3
:106700002930736186F82A2002B0BDE8F08111209B
:1067100002B0BDE8F081082002B0BDE8F081214957
:1067200003F00F03CA54CEE7A368591C0BD01F2BEC
:1067300086BF03F01F0318494FF0A04103F5E07333
:10674000002241F82320E3685A1C1AD01F2B8ABF6D
:1067500011494FF0A04103F01F03012202FA03F395
:10676000C1F80835E3681F2B88BF03F01F0303F54A
:10677000E0738CBF08494FF0A041032241F8232069
:10678000E3682A68A168C2F80835C2F810156EE7F8
:10679000C8300020F16303000003005080000200B5
:1067A00000E100E014ED00E0F8B5036807793C4C27
:1067B0000022C3F800252C2202FB0742036852681E
:1067C000B2B1384AC3F80823036843F30732002AFA
:1067D0000EDB5309344D2033012102F01F0201FA70
:1067E00002F245F82320BFF34F8FBFF36F8F03688A
:1067F000D3F80C65D3F81455D3F80825D3F8101541
:106800004FF0FF3CC3F814C5C3F80CC503686645D8
:10681000C3F808C5C3F810C50CD01F2E86BF06F0FC
:106820001F06224B4FF0A04306F5E0764FF0020C16
:1068300043F826C06E1C0BD01F2D86BF05F01F0528
:106840001A4B4FF0A04305F5E075022643F825608A
:106850004D1C0BD01F2986BF01F01F01134B4FF0B9
:10686000A04301F5E071022543F82150531C0BD0E1
:106870001F2A86BF02F01F020C4B4FF0A04302F507
:10688000E072022143F822100068FFF7A3FD2C22DA
:1068900002FB0744002384F82A306360F8BD00BF80
:1068A000C83000208402020000E100E00003005034
:1068B0002DE9F041334C90F804E02C2303FB0E4308
:1068C0008446586984B000284ED15A619960186294
:1068D00083F82800DCF80020C2F81C01D2F81C2143
:1068E0000292029ADCF8002001219160DCF800207D
:1068F0009D68C2F81C01D2F81C1101910199196A16
:106900006E5C196A01311962C2F81C655A6812B1CD
:1069100004B0BDE8F0815E691A6ADCF800109642A6
:106920001BD9074602E093F828200ABBD1F81C21A6
:10693000002AF8D0C1F81C71D1F81C210392039AE7
:106940001A6A15F802801A6A01321A62C1F81C85A7
:106950001A6A9642EAD8DCF80010D1F81C31002BF4
:10696000FBD00123CB6004E0112004B0BDE8F0812E
:106970000F202C2303FB0E4300225A6104B0BDE814
:10698000F08100BFC8300020F0B5594BD3F8242166
:106990008BB0002A58D00022C3F82421D3F8241148
:1069A000049102228DF818200499524AD3F88014D9
:1069B000C3F880149FED4C7B0991D3F83C45D06817
:1069C00082ED067BCDE90704D2E9001306A89847BB
:1069D000474BD3F8442152B10021464AC3F8441131
:1069E000D3F84401916903900398002960D1404B8A
:1069F000D3F8202162B10020C3F82001D3F8202170
:106A0000029201213B4A029CD9605169002942D17E
:106A1000374BD3F85821AAB10020C3F85801D3F856
:106A20005811344A01910199516959B1D3F84C4533
:106A30008DF81800D2E901315061CDE9071406A89C
:106A4000116898470BB0F0BDD3F810110029BFD0E2
:106A5000C3F81021D3F81011264C05910599A169AE
:106A6000D3F83C058842B3D1E569E768A561D4E96C
:106A700000167DB3E261D3F8002222F02002C3F8B1
:106A800000222369E3600123CDE907708DF81830F7
:106A900006A8B0479CE7D3F84C458DF81800D2E91A
:106AA00001315061CDE9071406A811689847AFE796
:106AB0009FED0D7BD3F83C45D0684FF0010CCDE93C
:106AC000070482ED067BD2E900138DF818C006A8F2
:106AD00098478CE70123CDE907708DF8183006A898
