:020000040000FA
:1000000000040020810A000015070000610A0000BA
:100010001F07000029070000330700000000000050
:10002000000000000000000000000000A50A000021
:100030003D070000000000004707000051070000D6
:100040005B070000650700006F07000079070000EC
:10005000830700008D07000097070000A10700003C
:10006000AB070000B5070000BF070000C90700008C
:10007000D3070000DD070000E7070000F1070000DC
:10008000FB070000050800000F0800001908000029
:10009000230800002D080000370800004108000078
:1000A0004B080000550800005F08000069080000C8
:1000B000730800007D080000870800009108000018
:1000C0009B080000A5080000AF080000B908000068
:1000D000C3080000CD080000D7080000E1080000B8
:1000E000EB080000F5080000FF0800000909000007
:1000F000130900001D090000270900003109000054
:100100003B0900001FB500F003F88DE80F001FBD8C
:1001100000F0ACBC40F6FC7108684FF01022401CA7
:1001200008D00868401C09D00868401C04D0086842
:1001300000F037BA9069F5E79069F9E7704770B554
:100140000B46010B184400F6FF70040B4FF0805073
:100150000022090303692403406943431D1B104621
:1001600000F048FA29462046BDE8704000F042BA47
:10017000F0B54FF6FF734FF4B4751A466E1E11E0DA
:10018000A94201D3344600E00C46091B30F8027B3B
:10019000641E3B441A44F9D19CB204EB134394B25D
:1001A00004EB12420029EBD198B200EB134002EBB2
:1001B000124140EA0140F0BDF34992B00446D1E952
:1001C0000001CDE91001FF224021684600F0F4FB58
:1001D00094E80F008DE80F00684610A902E004C8FB
:1001E00041F8042D8842FAD110216846FFF7C0FF7C
:1001F0001090AA208DF8440000F099F9FFF78AFFCB
:1002000040F6FC7420684FF01025401C0FD0206889
:1002100010226946803000F078F92068401C08D030
:100220002068082210A900F070F900F061F9A869AF
:10023000EEE7A869F5E74FF080500369406940F6A2
:10024000FC71434308684FF01022401C06D0086838
:1002500000F58050834203D2092070479069F7E788
:100260000868401C04D00868401C03D00020704778
:100270009069F9E70420704770B504460068C34DE3
:10028000072876D2DFE800F033041929631E250021
:10029000D4E9026564682946304600F062F92A46CE
:1002A0002146304600F031F9AA002146304600F0E0
:1002B00057FB002800D0032070BD00F009FC4FF46C
:1002C000805007E0201D00F040F90028F4D100F034
:1002D000FFFB60682860002070BD241D94E80700C3
:1002E000920000F03DFB0028F6D00E2070BDFFF715
:1002F000A2FF0028FAD1D4E901034FF0805100EBAE
:10030000830208694D69684382420ED840F6F8704E
:1003100005684FF010226D1C09D0056805EB8305B8
:100320000B6949694B439D4203D9092070BD55694A
:10033000F4E70168491C03D00068401C02D003E0C8
:100340005069FAE70F2070BD2046FFF735FFFFF731
:1003500072FF0028F7D1201D00F0F7F80028F2D135
:1003600060680028F0D100F0E2F8FFF7D3FE00F05B
:10037000BFF8072070BD10B50C46182802D0012028
:10038000086010BD2068FFF777FF206010BD41684E
:10039000054609B1012700E0002740F6F8742068FF
:1003A0004FF01026401C2BD02068AA68920000F065
:1003B000D7FA38B3A86881002068401C27D020688D
:1003C000FFF7BDFED7B12068401C22D026684FF051
:1003D0008050AC686D68016942695143A9420DD9EA
:1003E000016940694143A14208D92146304600F0E5
:1003F000B8F822462946304600F087F800F078F831
:100400007069D2E700F093F8FFF784FEF6E77069B1
:10041000D6E77669DBE740F6FC7420684FF01026DB
:10042000401C23D02068401C0CD02068401C1FD0EA
:100430002568206805F18005401C1BD027683879A5
:10044000AA2819D040F6F8700168491C42D001680A
:10045000491C45D00168491C3ED001680968491C07
:100460003ED00168491C39D000683EE0B069DAE747
:10047000B569DEE7B769E2E710212846FFF778FEA5
:100480003968814222D12068401C05D0D4F8001080
:1004900001F18002C03107E0B169F9E730B108CA63
:1004A00051F8040D984201D1012000E000208A4259
:1004B000F4D158B1286810B1042803D0FEE72846CB
:1004C000FFF765FF3149686808600EE0FFF722FE1C
:1004D00000F00EF87169BBE77169BFE7706904E06D
:1004E0004FF480500168491C01D000F0CBFAFEE7C0
:1004F000BFF34F8F26480168264A01F4E06111439B
:100500000160BFF34F8F00BFFDE72DE9F0411746B3
:100510000D460646002406E03046296800F054F8EF
:10052000641C2D1D361DBC42F6D3BDE8F08140F69B
:10053000FC700168491C04D0D0F800004FF48051D1
:10054000FDE54FF010208069F8E74FF080510A690F
:10055000496900684A43824201D810207047002050
:10056000704770B50C4605464FF4806608E0284693
:1005700000F017F8B44205D3A4F5806405F5805562
:10058000002CF4D170BD0000F40A0000000000202F
:100590000CED00E00400FA05144801680029FCD0C5
:1005A0007047134A0221116010490B68002BFCD0E0
:1005B0000F4B1B1D186008680028FCD0002010603D
:1005C00008680028FCD07047094B10B501221A605A
:1005D000064A1468002CFCD0016010680028FCD08A
:1005E0000020186010680028FCD010BD00E4014015
:1005F00004E5014070B50C46054600F073F810B9EB
:1006000000F07EF828B121462846BDE8704000F091
:1006100007B821462846BDE8704000F037B8000012
:100620007FB5002200920192029203920A0B000B06
:100630006946012302440AE0440900F01F0651F80C
:10064000245003FA06F6354341F82450401C8242F8
:10065000F2D80D490868009A10430860081D016827
:10066000019A1143016000F03DF800280AD00649C4
:1006700010310868029A10430860091D0868039A3F
:10068000104308607FBD00000006004030B50F4CED
:10069000002200BF04EB0213D3F800582DB9D3F8A1
:1006A000045815B9D3F808581DB1521C082AF1D3C3
:1006B00030BD082AFCD204EB0212C2F80008C3F8CD
:1006C00004180220C3F8080830BD000000E0014013
:1006D0004FF08050D0F83001082801D0002070473A
:1006E000012070474FF08050D0F83011062905D016
:1006F000D0F83001401C01D0002070470120704725
:100700004FF08050D0F830010A2801D00020704707
:100710000120704708208F490968095808471020B0
:100720008C4909680958084714208A4909680958FA
:100730000847182087490968095808473020854923
:100740000968095808473820824909680958084744
:100750003C20804909680958084740207D490968BC
:100760000958084744207B49096809580847482028
:1007700078490968095808474C207649096809589A
:10078000084750207349096809580847542071499F
:1007900009680958084758206E49096809580847E8
:1007A0005C206C4909680958084760206949096854
:1007B00009580847642067490968095808476820AC
:1007C00064490968095808476C2062490968095852
:1007D000084770205F4909680958084774205D4937
:1007E00009680958084778205A490968095808478C
:1007F0007C205849096809580847802055490968EC
:10080000095808478420534909680958084788202F
:1008100050490968095808478C204E490968095809
:10082000084790204B4909680958084794204949CE
:10083000096809580847982046490968095808472F
:100840009C204449096809580847A0204149096883
:1008500009580847A4203F49096809580847A820B3
:100860003C49096809580847AC203A4909680958C1
:100870000847B0203749096809580847B420354966
:10088000096809580847B8203249096809580847D3
:10089000BC203049096809580847C0202D4909681B
:1008A00009580847C4202B49096809580847C82037
:1008B0002849096809580847CC2026490968095879
:1008C0000847D0202349096809580847D4202149FE
:1008D000096809580847D8201E4909680958084777
:1008E000DC201C49096809580847E02019490968B3
:1008F00009580847E4201749096809580847E820BB
:100900001449096809580847EC2012490968095830
:100910000847F0200F49096809580847F4200D4995
:10092000096809580847F8200A490968095808471A
:10093000FC2008490968095808475FF48070054998
:10094000096809580847000003480449024A034B54
:100950007047000000000020000B0000000B0000AA
:1009600040EA010310B59B070FD1042A0DD310C82C
:1009700008C9121F9C42F8D020BA19BA884201D97E
:10098000012010BD4FF0FF3010BD1AB1D30703D0C6
:10099000521C07E0002010BD10F8013B11F8014B7C
:1009A0001B1B07D110F8013B11F8014B1B1B01D198
:1009B000921EF1D1184610BD02F0FF0343EA032254
:1009C00042EA024200F005B87047704770474FF0A6
:1009D00000020429C0F0128010F0030C00F01B800C
:1009E000CCF1040CBCF1020F18BF00F8012BA8BF1A
:1009F00020F8022BA1EB0C0100F00DB85FEAC17CDE
:100A000024BF00F8012B00F8012B48BF00F8012B90
:100A100070474FF0000200B51346944696462039C1
:100A200022BFA0E80C50A0E80C50B1F12001BFF4A7
:100A3000F7AF090728BFA0E80C5048BF0CC05DF80D
:100A400004EB890028BF40F8042B08BF704748BF5B
:100A500020F8022B11F0804F18BF00F8012B7047CF
:100A6000014B1B68DB6818470000002009480A4951
:100A70007047FFF7FBFFFFF745FB00BD20BFFDE719
:100A8000064B1847064A1060016881F308884068E1
:100A900000470000000B0000000B000017040000DE
:100AA000000000201EF0040F0CBFEFF30881EFF3ED
:100AB0000981886902380078182803D100E0000015
:100AC000074A1047074A12682C3212681047000084
:100AD00000B5054B1B68054A9B58984700BD0000B0
:100AE0007703000000000020F00A0000040000006E
:100AF000001000000000000000FFFFFF0090D00386
:10100000F018002001FF02000597000067FE0200B3
:1010100005970000059700000597000000000000FC
:101020000000000000000000000000008DFF020032
:1010300005970000000000000597000005970000DC
:10104000F5FF0200FBFF0200059700000597000076
:101050000597000005970000059700000597000020
:10106000010003000597000005970000070003003A
:10107000059700000D000300130003001900030092
:1010800005970000059700000597000005970000F0
:1010900005970000059700000597000005970000E0
:1010A000059700001F00030005970000059700004A
:1010B00005970000059700000597000005970000C0
:1010C0002500030005970000059700000597000024
:1010D00005970000059700000597000005970000A0
:1010E0000597000005970000059700000597000090
:1010F0000597000005970000059700000597000080
:10110000059700000597000000F002F82EF0E7FEBA
:101110000AA090E8000C82448344AAF10107DA4552
:1011200001D12EF0DCFEAFF2090EBAE80F0013F089
:10113000010F18BFFB1A43F00103184720F4020007
:1011400040F402000A444FF0000C10F8013B13F089
:10115000070408BF10F8014B1D1108BF10F8015B10
:10116000641E05D010F8016B641E01F8016BF9D103
:1011700013F0080F1EBF10F8014BAD1C0C1B09D15A
:101180006D1E58BF01F801CBFAD505E014F8016BCC
:1011900001F8016B6D1EF9D59142D6D3704700005E
:1011A0000023002400250026103A28BF78C1FBD870
:1011B000520728BF30C148BF0B6070471FB500F011
:1011C00093F88DE80F001FBD1EF0040F0CBFEFF366
:1011D0000880EFF30980014A104700001F4F00000C
:1011E000401E00BF00BF00BF00BF00BF00BF00BF68
:1011F00000BF00BF00BF00BF00BF00BF00BF00BFF7
:1012000000BF00BF00BF00BF00BF00BF00BF00BFE6
:1012100000BF00BF00BF00BF00BF00BF00BF00BFD6
:1012200000BF00BF00BF00BF00BF00BF00BF00BFC6
:1012300000BF00BF00BF00BF00BF00BF00BF00BFB6
:1012400000BF00BF00BF00BF00BF00BF00BF00BFA6
:1012500000BF00BF00BF00BF00BF00BF00BFBFD1C5
:1012600070470000401E00BF00BF00BF00BF00BFAE
:1012700000BF00BF00BF00BF00BF00BF00BF00BF76
:1012800000BF00BF00BF00BF00BF00BF00BF00BF66
:1012900000BF00BF00BF00BF00BF00BF00BF00BF56
:1012A00000BF00BF00BF00BF00BF00BF00BF00BF46
:1012B00000BF00BF00BF00BF00BF00BF00BF00BF36
:1012C00000BF00BF00BF00BF00BF00BF00BF00BF26
:1012D00000BF00BF00BF00BF00BF00BF00BF00BF16
:1012E00000BFBFD1704700002EF0F6BD5E48002160
:1012F0000170417010218170704770B50546164627
:101300000C46022000F0A0F9574901200870574907
:10131000F01E086056480560001F046070BD10B5DF
:10132000022000F091F95049012008705148002135
:10133000C0F80011C0F80411C0F808114E494FF46C
:101340000000086010BD48480178D9B14B4A4FF4FD
:10135000000111604749D1F800310022002B1CBF69
:10136000D1F80431002B02D0D1F8081119B1427024
:101370004FF0100104E04FF001014170404909684D
:10138000817002704FF0000000F05EB910B50220CD
:1013900000F05AF934480122002102703548C0F8A3
:1013A0000011C0F80411C0F80811026010BD2E48E9
:1013B0000178002904BF407870472E48D0F800110A
:1013C000002904BF02207047D0F8001100291CBF7B
:1013D000D0F80411002905D0D0F80801002804BF76
:1013E00001207047002070471F4800B50278214B4C
:1013F0004078C821491EC9B282B1D3F800C1BCF1FE
:10140000000F10D0D3F8000100281CBFD3F804014E
:1014100000280BD0D3F8080150B107E0022802D011
:10142000012805D002E00029E4D1FFDF002000BD43
:10143000012000BD0C480178002904BF8078704766
:101440000C48D0F8001100291CBFD0F80411002965
:1014500002D0D0F8080110B14FF0100070470848D2
:101460000068C0B2704700000800002010F500407E
:1014700008F5004000F0004004F5014008F5014087
:1014800000F400405748002101704170704770B56A
:10149000064614460D46012000F0D6F85248066074
:1014A000001D0460001D056050490020C1F8500176
:1014B0004F490320086050494E480860091D4F48B5
:1014C000086070BD2DE9F041054646480C460126EE
:1014D00006704B4945EA024040F08070086003F016
:1014E0008EFD002804BF474804600027464CC4F81E
:1014F0000471474945480860002D02BFC4F80062E6
:101500002660BDE8F081012D18BFFFDFC4F800722E
:10151000266041493F480860BDE8F08131480178C4
:1015200071B13B4A394911603749D1F80421002192
:10153000002A08BF417002D0384A12684270017018
:10154000002000F081B827480178002904BF4078C6
:1015500070472D48D0F80401002808BF70472F4875
:101560000068C0B27047002808BF70472DE9F047F7
:101570001C480078002808BFFFDF234CD4F8040182
:10158000002818BFBDE8F0874FF00209C4F80493A3
:10159000234F3868C0F30018386840F010003860F6
:1015A000D4F80401002804BF4FF400454FF0E026B2
:1015B00008D100BFC6F880522EF04AFCD4F80401CE
:1015C0000028F7D0B8F1000F03D1386820F01000E0
:1015D0003860C4F80893BDE8F0870B4901208860A3
:1015E000704700000B00002008F50040001000408C
:1015F0001CF500405011004098F501400CF00040EF
:1016000004F5004018F5004000F00040000002031F
:1016100008F501400000020204F5014000F400401A
:1016200010ED00E04FF0E0224FF400400021C2F83E
:101630008001BFF34F8FBFF36F8F174801600160C8
:101640001649900208607047134900B500220A60ED
:101650000A60124B4FF060721A60002808BF00BD8C
:101660000F4A104BDFF840C001280CD002281CBFE5
:10167000FFDF00BD032008601A604FF4000000BFC8
:10168000CCF8000000BD022008601A604FF04070E6
:10169000F6E700B5FFDF00BD00F5004008F50140AA
:1016A000F402002014F5004004F50140012804BFB5
:1016B00041F6A4707047022804BF41F28830704799
:1016C000042804BF46F218007047082804BF47F2F8
:1016D000A030704700B5FFDF41F6A47000BD10B523
:1016E000FC48002401214470047044728472C17269
:1016F00080F82540C462846380F83C4080F83D4017
:10170000FF2180F83E105F2180F83F1018302EF046
:10171000A5FCF149601E0860091D0860091D0C60E8
:10172000091D0860091D0C60091D0860091D08607D
:10173000091D0860091D0860091D0860091D086071
:10174000091D0860091D0860091D086010BDE348F7
:10175000016801F00F01032904BF012070470168EF
:1017600001F00F01042904BF02207047016801F055
:101770000F01052904D0006800F00F00062807D1EA
:10178000D748006810F0060F0CBF082004207047EF
:1017900000B5FFDF012000BD012812BF0228002094
:1017A0007047042812BF08284FF4C870704700B56E
:1017B000FFDF002000BD012804BF28207047022859
:1017C00004BF18207047042812BF08284FF4A870DF
:1017D000704700B5FFDF282000BD70B5BF48016825
:1017E00001F00F01032908BF012414D0016801F0A2
:1017F0000F01042904BF022418210DD0016801F053
:101800000F0105294BD0006800F00F0006281CBF0F
:10181000FFDF012443D02821AE48C26A806A101A33
:101820000E18082C04BF4EF6981547F2A0302DD0A4
:101830002046042C08BF4EF628350BD0012808BFDF
:1018400041F6A47506D0022C1ABFFFDF41F6A4753D
:1018500041F28835012C08BF41F6A47016D0022C45
:1018600008BF002005D0042C1ABFFFDF00204FF472
:10187000C8702D1A022C08BF41F2883006D0042C03
:101880001ABFFFDF41F6A47046F21800281A4FF481
:101890007A7100F2E730B0FBF1F0304470BD90484F
:1018A000006810F0060F0CBF082404244FF4A87140
:1018B000B2E710B58B49026801F118040A63426867
:1018C0004A63007A81F83800207E48B1207F01F019
:1018D0007EFAA07E011C18BF0121207F01F059FA79
:1018E000607E002808BF10BD607F01F070FAE07EC6
:1018F000011C18BF0121607FBDE8104001F049BA0A
:1019000030B50024054601290AD0022908BF4FF04E
:10191000807405D0042916BF08294FF0C744FFDFA3
:1019200044F4847040F480106F49086045F44030FE
:1019300001F1040140F00070086030BD30B50024B2
:10194000054601290AD0022908BF4FF0807405D04E
:10195000042916BF08294FF0C744FFDF44F4847000
:1019600040F480106049086045F4403001F1040102
:1019700040F0007008605D48D0F80001002818BFF2
:10198000FFDF30BD2DE9F04102274FF0E0280125AF
:101990000024C8F88071BFF34F8FBFF36F8F544896
:1019A0000460056003F072FB524E18B1306840F4D9
:1019B0008060306003F023FB38B1306820F077009E
:1019C00040F0880040F0004030604C494A480860D0
:1019D0004FF01020806CB0F1FF3F04D048490A68F6
:1019E00060F317420A60474940F25B600860091FD4
:1019F00040F203100860081F0560384903200860A2
:101A000041480560424A41491160434A41491160D9
:101A1000121F42491160016821F4407101600168A0
:101A200041F480710160C8F8807230491020C1F81B
:101A30000403284880F83140C462BDE8F081294A97
:101A40000368C2F81A308088D08302F1180001724E
:101A50007047204B10B51A7A8A4208D101460622F7
:101A6000981C2EF0C5F8002804BF012010BD0020EE
:101A700010BD184890F825007047164A5170107034
:101A80007047F0B50546800000F1804000F58050B9
:101A90008B88C0F820360B78D1F8011043EA012179
:101AA000C0F8001605F10800012707FA00F61C4CE3
:101AB000002A04BF2068B04304D0012A18BFFFDF0A
:101AC000206830432060206807FA05F10843206051
:101AD000F0BD000018040020000E0040101500406A
:101AE00014140040000400201415004000100040B1
:101AF000FC1F00403C1700402C0000897817004074
:101B00008C150040381500405016004000000E04AF
:101B100008F5014040800040A4F50140101100404C
:101B20004016004000F0BCBFFB4890F83200704700
:101B3000F94890F834007047F84AC178116000689D
:101B4000F749000208607047252808BF02210ED01F
:101B5000262808BF1A210AD0272808BF502106D0FE
:101B60000A2894BF0422062202EB4001C9B2ED4AC2
:101B70001160ED49086070472DE9F047E64CA17A05
:101B8000012956D0022918BFBDE8F087627E002ADD
:101B900008BFBDE8F087012950D0E17E667F0D1CAB
:101BA00018BF01255FF02401DFF880934FF0010892
:101BB000C9F84C80DFF878A34718DAF80000B8427B
:101BC00028BFFFDF0020C9F84C01CAF800703002BE
:101BD00085F0010140EA015040F0031194F8200023
:101BE000820002F1804202F5C042C2F81015D149CC
:101BF00001EB8001A07FC20002F1804202F5F832C1
:101C0000C2F81415CC4BC2F81035E27FD30003F1B3
:101C1000804303F5F833C3F81415C849C3F8101509
:101C200008FA00F008FA02F10843C5490860BDE867
:101C3000F087227E002AAED1BDE8F087A17E267F04
:101C4000002914BF012500251121ADE72DE9F04140
:101C5000BC4E804603200D46C6F80002B849BA487B
:101C60000860284600F05BFFAB4F0124B8F1000F7D
:101C700004BFBC72346026D0B8F1010F23D1B34841
:101C8000006860B915F00C0F09D0C6F804430120B4
:101C900000F0BEFEF463346487F83C4002E00020AC
:101CA00000F0B6FE284601F022F80220B87203F0D8
:101CB000DDF938B903F0EAF920B9A548016841F423
:101CC000C021016074609948C4649948006829463D
:101CD000BDE8F04150E72DE9F0479A4E81460320D8
:101CE0000D46C6F80002DFF858829748C8F8000091
:101CF000084600F014FF284600F0F9FF0124864F43
:101D0000B9F1000F03D0B9F1010F0AD026E0BC727F
:101D1000B86B40F48010B8634FF48010C8F800002E
:101D20001CE00220B872B86B40F40010B8634FF4A6
:101D30000010C8F800008548006860B915F00C0F65
:101D400009D0C6F80443012000F062FEF463346455
:101D500087F83C4002E0002000F05AFE05F068FAE7
:101D60002946BDE8F04707E72DE9F84F754C824654
:101D7000032088461746C4F80002DFF8C491724871
:101D8000C9F80000104600F0CAFEDFF8C8B1624E84
:101D90000125BAF1000F04BFCBF80040B57204D0A2
:101DA000BAF1010F18BFFFDF2FD06B48C0F80080D9
:101DB0006B496A480860B06B40F40020B063D4F807
:101DC00000321021C4F808130020C4F80002DFF824
:101DD00094C18A03CCF80020C4F80001C4F80C01B7
:101DE000C4F81001C4F80401C4F81401C4F81801BF
:101DF0005D4800680090C4F80032C9F80020C4F8BB
:101E00000413BAF1010F09D01BE0384600F06FFF50
:101E10005648CBF800000220B072C6E74B48006875
:101E200060B917F00C0F09D0C4F80453012000F07A
:101E3000EFFDE563256486F83C5002E0002000F0E9
:101E4000E7FD4FF40020C9F800003848C564384861
:101E50000068404528BFFFDF39464046BDE8F84FDF
:101E60008AE62DE9F0412C4C0646002594F8310015
:101E700017468846002808BFFFDF16B1012E16D08E
:101E800021E094F83100012808D094F83020394638
:101E9000404600F059FEE16A451814E094F830100D
:101EA0003A46404600F08EFEE16A45180BE094F891
:101EB000310094F8301001283A46404609D000F02D
:101EC000A9FEE16A45183A4629463046BDE8F04188
:101ED0004AE700F059FEE16A4518F4E72DE9F84FAA
:101EE000184CD4F8000220F00309D4F804034FF092
:101EF000100AC0F30018C4F808A30026C4F8006252
:101F000018481B490160044D0127A97A012931D0E5
:101F1000022932D044E000001804002024150040BB
:101F20001C1500400815004054150040008000407A
:101F30004C850040006000404C8100401011004082
:101F400004F5014000100040000004048817004020
:101F500068150040ACF501404885004048810040CC
:101F6000A8F5014008F50140181100400410004098
:101F700000000E04297E11B912E0697E81B1A97FAB
:101F8000EA7F07FA01F107FA02F21143016095F8BE
:101F90002000800000F1804000F5C040C0F81065CE
:101FA000FF208DF80000C4F81061276105E000BF34
:101FB0009DF80000401E8DF800009DF8000018B14B
:101FC000D4F810010028F3D09DF80000002808BFC5
:101FD000FFDFC4F81061002000F01AFD6E72AE72CF
:101FE000EF72C4F80092B8F1000F18BFC4F804A350
:101FF000BDE8F88FFF2008B58DF80000FD480021EE
:10200000C0F810110121016105E000BF9DF800102A
:10201000491E8DF800109DF8001019B1D0F810116C
:102020000029F3D09DF80000002808BFFFDF08BD9D
:102030000068F14920F07F40086070474FF0E021D0
:102040000220C1F88001BFF34F8FBFF36F8F70473D
:102050004FF0E0200221C0F8801100F5C070BFF3FE
:102060004F8FBFF36F8FC0F80011704710B490E826
:102070001C10E24981E81C10D0E90420C1E90420C9
:1020800010BC70474FF0E0210220C1F800017047FA
:10209000DB4908707047DB490860704770B505463A
:1020A00005F0C6F8D84C2844E16A884298BFFFDFA3
:1020B0000120207405F0BCF8D44A28440021606156
:1020C000C2F84411D2490860A06BD24940F48000A4
:1020D000A063D001086070BD70B5CB4C0546CE4AF8
:1020E0000220207410680E4600F00F00032808BF7D
:1020F000012213D0106800F00F00042808BF02224C
:102100000CD0106800F00F0005281BD0106800F0FC
:102110000F0006281CBFFFDF012213D094F8310006
:1021200094F83010012815D0284600F0BAFDB749C0
:1021300060610020C1F844016169E06A0844B44963
:10214000086070BDB548006810F0060F0CBF08228B
:102150000422E3E73346284600F071FDE7E7B04983
:102160004FF480000860A848816B21F480018163EE
:10217000002101747047C20002F1804202F5F8327A
:10218000A84BC2F81035C2F8141501218140A148AE
:1021900001609D48826B1143816370479B48012118
:1021A0004160C1600021C0F844119948016096481F
:1021B000C16270479C4908608E48D0F8001241F017
:1021C0004001C0F8001270478A48D0F8001221F090
:1021D0004001C0F80012944900200860704785480B
:1021E000D0F8001221F01001C0F800120121816125
:1021F00070478549FF2081F83E007E480021C0F8E5
:102200001C11D0F8001241F01001C0F80012704704
:10221000784981B0D1F81C21012A0DD07A4991F872
:102220003E10FF290DBF00204942017001B008BFD8
:102230007047012001B070477C4A126802F07F02AB
:10224000524202700020C1F81C01794800680090D9
:10225000EFE7F0B517460C00064608BFFFDF6A4DF2
:1022600014F0010F2F731CBF012CFFDF002E0CBFD9
:10227000012002206872EC7201281CBF0228FFDFD7
:10228000F0BD614981F83F0070472DE9F84F5C4887
:102290000078042828BFFFDF5B4CDFF88481554DB0
:1022A00094F83C0000260127E0B1D5F8040110F1B4
:1022B000000918BF4FF00109D5F81001002818BF18
:1022C000012050EA09014FF4002B17D08021C5F8F6
:1022D0000813C8F800B084F83C6090F0010F18BFF4
:1022E000BDE8F88FDFF82491D9F84C0100287DD0A3
:1022F000A07A01287BD002287AD0D7E0D5F8000157
:10230000DFF828A130B3C5F800616F61FF200090AD
:1023100002E0401E009005D0D5F81C01002800986E
:10232000F7D000B9FFDFDAF8000000F07F0A94F878
:102330003F0050453CBF002000F06AFB84F83EA0FF
:10234000C5F81C61C5F808733948006800902F640F
:10235000AF6302E0B9F1000F03D0B9F1000F2BD049
:1023600086E0DAF8000000F07F0184F83E10C5F83E
:102370001C6194F83D0048B194F83F00884218D29F
:10238000002000F045FB2F64AF6312E0294800688D
:1023900094F83F3082B2000C994203D30F2A06D939
:1023A000022804D2012000F033FB2F6401E02F64E7
:1023B000AF631F48006800908022C5F804231348CB
:1023C00087641D490B68A1F1040CDCF800C043F6DA
:1023D00098273B44634542D20A6842F210731A447C
:1023E0000A60C0F84861154815492BE05EE046E0F8
:1023F00048E00000001000403C15004000040020B0
:102400000D0000200415004018040020008000404A
:102410004485004004F501401015004014140040AC
:1024200008F50140041100406015004048150040C7
:102430001C110040741500404885004014100040F5
:10244000ACF501400860091FFD480860FD48C0F870
:1024500000B0A06B40F40020A063BDE8F88F0E60D0
:10246000C0F84861C5F80823C8F800B0C0F8486152
:102470008020C5F80803C8F800B0BDE8F88F207EBA
:1024800010B913E0607E88B1A07FE17F07FA00F009
:1024900007FA01F10843C8F8000094F82000800012
:1024A00000F1804000F5C040C0F81065E648A16B1F
:1024B0000160A663217C002019B1D9F844110129DB
:1024C00000D00021A27A012A6ED0022A74D000BF67
:1024D000D5F8101101290CBF1021002141EA000894
:1024E000DA48016811F0FF0F03D0D5F81411012963
:1024F00000D0002184F83210006810F0FF0F03D0E4
:10250000D5F81801012800D0002084F83300D04805
:10251000006884F83400FEF74AFF012818BF002045
:1025200084F83500C5F80061C5F80C61C5F8106184
:10253000C5F80461C5F81461C5F81861C54800689C
:102540000090C548C0F84461C4480068DFF81093A3
:102550000090D9F80000A062A9F104000068E062D0
:10256000C048016801F00F01032908BF012013D002
:10257000016801F00F01042908BF02200CD0016896
:1025800001F00F01052926D0006800F00F00062891
:102590001CBFFFDF01201ED084F83000A07A84F831
:1025A000310002282CD11EE0D5F80C01012814BFFF
:1025B000002008208CE7FFE7D5F80C01012814BFA4
:1025C00000200220A84A1268012A14BF0422002217
:1025D000104308437CE7A548006810F0060F0CBFC5
:1025E00008200420D8E7607850B1A149096809782B
:1025F0000840217831EA000008BF84F8247001D037
:1026000084F82460DFF86CA218F0020F06D004F002
:102610000FFEA16A081ADAF81010884718F0010FA7
:1026200018BF4FF0000B0DD004F002FEE16ADAF89B
:102630001420081A594690478F48007810F0010F6F
:102640002FD10CE018F0020F18BF4FF0010BEBD1A7
:1026500018F0080F18BF4FF0020BE5D1ECE7DFF8D8
:1026600010B2DBF80000007800F00F00072828BF48
:1026700084F8256015D2DBF80000062200F109017C
:10268000A01C2DF0B5FA40B9207ADBF800100978CB
:10269000B0EBD11F08BF012001D04FF0000084F83B
:1026A0002500E17A4FF0000011F0020F1CBF18F076
:1026B000020F18F0040F19D111F0100F1CBF94F87D
:1026C0003320002A02D094F835207AB111F0080F97
:1026D0001CBF94F82420002A08D111F0040F02D066
:1026E00094F8251011B118F0010F01D04FF001003E
:1026F000617A19B168B1FFF7F1FB10E052485F4908
:102700000160D5F8000220F00300C5F80002E7726E
:1027100005E001290AD0022918BFFFDF0DD018F00B
:10272000010F14D0DAF80000804745E06672E772C6
:10273000A7729621227B002006E06672E7720220D3
:10274000A072227B96210120FFF78BFBE7E718F0B0
:10275000020F2AD018F0040F21D102F087FCF0B943
:1027600002F094FCD8B946480168001F0068C0F325
:10277000006CC0F3425500F00F03C0F30312C0F326
:102780000320BCF1000F0AD0002B1CBF002A002838
:1027900005D1002918BF032D38BF48F0040827EAE7
:1027A0009800DAF80410884706E018F0080F18BF00
:1027B000DAF8080024D08047A07A022818BFBDE8C4
:1027C000F88F207C002808BFBDE8F88F2249C1F8A7
:1027D000446102281CD0012818BFFFDFE16A60694C
:1027E000884298BFFFDF6069C9F80000A06B4FF412
:1027F000800140F48000A06312480160BDE8F88FBA
:1028000018F0100F14BFDAF80C00FFDFD3D1D3E7B4
:102810006169E06A0844E7E738B51A4904460220CE
:10282000887201212046FFF7A7F90D4A04F13D0007
:102830001060094B0020C3F84401134926E0000052
:102840004881004004F5014008F501404016004071
:1028500010140040181100400080004044810040E6
:10286000448500401015004000140040141400403E
:1028700004150040000400200D00002000000404A6
:10288000541400401804002000100040C1F800015A
:10289000C1F80C01C1F81001C1F80401C1F814011C
:1028A000C1F818016B480068009001209864101D61
:1028B00000681168884228BFFFDF38BD2DE9F84362
:1028C000654A88460024917A0125644F012902D087
:1028D000022903D015E0117E11B912E0517E81B1B9
:1028E000917FD37F05FA01F105FA03F319433960AB
:1028F00092F82010890001F1804101F5C041C1F832
:10290000104506460220907201213046FFF734F947
:10291000534906F13D000860524AC2F8444152480A
:10292000C0F80041C0F80C41C0F81041C0F80441A3
:10293000C0F81441C0F818414648006800909564FA
:10294000081D00680968884228BFFFDFB8F1000F42
:102950001CBF4FF400303860BDE8F883022810B582
:102960000DD0012804BF42F6CE3010BD042817BF99
:10297000082843F6A440FFDF41F66A0010BD02F0CC
:1029800031FB30B902F03BFB002808BF41F658305C
:1029900001D041F2643041F29A01084410BD32493D
:1029A00010B50020C1F800022C49304808603149B8
:1029B0002F480860091D30480860091D2F4808602D
:1029C000091D2F480860091D2E480860091D2E4862
:1029D0000860012000F0A3F82C494FF4381008607B
:1029E00010BD1E494FF43810086070472848016830
:1029F00003291BBF006802280120002070472448DB
:102A000001680B291BBF00680A28012000207047BD
:102A100020490968C9B9204A2049136870B123F0D8
:102A2000820343F07D0343F0004313600A6822F001
:102A3000100242F0600242F0004205E023F0004341
:102A400013600A6822F000420A60034981F83D00E1
:102A500070470000181100401804002008F50140DC
:102A60004485004000800040001000400000040445
:102A70001011004098F501400410004044810040CE
:102A8000141000401C1100401010004004F50140DB
:102A900050150040881700403C1700407C1700404C
:102AA00000B59B4902282ED021DC10F10C0F08BF85
:102AB000F42028D00FDC10F1280F08BFD82022D036
:102AC00010F1140F08BFEC201DD010F1100F08BF3B
:102AD000F02018D021E010F1080F08BFF82012D024
:102AE00010F1040F0CBFFC2000280CD015E0A0F161
:102AF0000300062811D2DFE800F00E0C0A080503D7
:102B0000082000E00720086000BD0620FBE7052044
:102B1000F9E70420F7E70320F5E7FFDF00BD00B584
:102B20007C49012808BF03200CD0022808BF0420DC
:102B300008D0042808BF062004D0082816BFFFDFED
:102B4000052000BD086000BD70B505460C46164660
:102B50001046FEF7ABFD022C08BF4FF47A7105D08A
:102B6000012C0CBF4FF4C86140F6340144183046C4
:102B7000FEF712FE204449F6797108444FF47A7149
:102B8000B0FBF1F0281A70BD70B505460C4608463A
:102B9000FFF7E4FE022C08BF40F24C4105D0012CA7
:102BA0000CBF40F634014FF4AF5149F6CA62511AD6
:102BB00008444FF47A7100F2E140B0FBF1F0281ABA
:102BC000801E70BD70B5064615460C460846FFF7D8
:102BD000C5FE022D08BF4FF47A7105D0012D0CBF40
:102BE0004FF4C86140F63401022C08BF40F24C4259
:102BF00005D0012C0CBF40F634024FF4AF52891AB5
:102C0000084449F6FC6108444FF47A71B0FBF1F0D6
:102C1000301A70BD70B504460E460846FEF746FDF4
:102C200005463046FEF7B8FD28444AF2AB31084469
:102C30004FF47A71B0FBF1F0201A801E70BD2DE9BF
:102C4000F04107461E460D4614461046082A16BF98
:102C500004284EF62830FEF729FD07EB4701C1EBAB
:102C6000C71100EBC100022D08BF40F24C4105D056
:102C7000012D0CBF40F634014FF4AF5147182846E0
:102C8000FFF76CFE381A4FF47A7100F6B730B0FBDC
:102C9000F1F52046FEF78FFD28443044401DBDE885
:102CA000F08170B5054614460E460846FEF7FEFC58
:102CB00005EB4502C2EBC512C0EBC2053046FEF77C
:102CC0006BFD2D1A2046082C16BF04284EF628301E
:102CD000FEF7ECFC28444FF47A7100F6B730B0FBF5
:102CE000F1F52046FEF767FD2844401D70BD0A49F6
:102CF000082818BF0428086803BF20F46C5040F46B
:102D0000444040F0004020F0004008607047000060
:102D10000C150040101500404017004010B5FEF79C
:102D2000DEFCFEF77FFCFEF7E1FABDE81040FEF79F
:102D3000A9BB302834BF012000207047202834BFB1
:102D40004FF0A042284A012300F01F0003FA00F0D0
:102D50000029D2F8101501EA000003D0002808BFAE
:102D6000704703E000281CBF002070470120704717
:102D7000202834BF4FF0A0421B4A012300F01F005F
:102D800003FA00F0002914BFC2F80805C2F80C05C8
:102D90007047202834BF4FF0A042134A012300F0AF
:102DA0001F0003FA00F0002914BFC2F80C05C2F896
:102DB00008057047202834BF4FF0A0410A4900F0B1
:102DC0001F0001EB80000022C0F800277047202878
:102DD00034BF4FF0A041044900F01F00012202FA65
:102DE00000F0C1F8180570470003005010B5044604
:102DF0000021012000F075F800210B2000F071F88F
:102E00000021082000F06DF80421192000F069F875
:102E100004210D2000F065F804210E2000F061F877
:102E200004210F2000F05DF80421C84300F059F898
:102E30000621162000F055F80621152000F051F863
:102E4000204604F031FA204605F0EAFB002010BDD0
:102E5000CE210180704710B504F036FABDE810406D
:102E600005F0F3BB274870472648704770B5054604
:102E700025480E460468244924480831086006F0B5
:102E8000A6FA41780F230122002006F096FAC02D01
:102E90003146284602D306F0B3FA01E004F016FAF0
:102EA0001948001D046006F092FA4178BDE87040B0
:102EB00010230122104606F080BA704710B506F0C4
:102EC00086FA41780D230122002006F076FA06F0FA
:102ED0007EFA417810230122BDE81040104606F02A
:102EE0006CBA4907090E002804DB00F1E02080F8E5
:102EF0000014704700F00F0000F1E02080F8141D6E
:102F00007047000003F90042100502400100000173
:102F10002DE9F04106461D480C4605681B491C4832
:102F20000831086006F053FA41780F23012200208F
:102F300006F043FAA6F12000312801D3012009E070
:102F4000412E15D0134F94E80F0007EB860656F874
:102F5000806CB04720600D48001D056006F037FA10
:102F60004178BDE8F04110230122104606F025BA51
:102F700006F02DFA417801221023104606F01DFAC2
:102F800020462CF05BFFE5E7062070471005024065
:102F900001000001700003000B4A022111600B497F
:102FA0000B68002BFCD0084B1B1D1860086800281C
:102FB000FCD00020106008680028FCD070474FF05B
:102FC000805040697047000004E5014000E4014082
:102FD0000548064A0168914201D100210160044977
:102FE0000120086070470000AC000020BEBAFECA95
:102FF00040E5014001B52CF046FE01BD0004050688
:103000002CFFFFFFDBE5B15100100300CE00FFFFF6
:1030100054010000C1CF6A0088429922EECBC42738
:103020000DC23255DE68C74D0137069410B5EFF377
:10303000108000F0010472B6F9484178491C4170D3
:103040004078012801D100F0E9FD002C00D162B6E2
:1030500010BD70B5F24CA07848B90125A570FFF7F6
:10306000E5FF00F0ECFD20B1002000F02EFC002078
:1030700070BD4FF08040E570C0F80453F7E770B5BD
:10308000EFF3108000F0010572B6E54C607800B9EE
:10309000FFDF6078401E6070607808B900F0C2FD04
:1030A000002D00D162B670BDDD4810B5817821B128
:1030B0000021C1708170FFF7E2FF002010BD10B544
:1030C000044600F0BCFDD6498978084000D00120B4
:1030D0002060002010BD10B5FFF7A8FF00F0AFFD85
:1030E00002220123CE49540728B1CE480260236151
:1030F0000320087202E00A72C4F8043300208871C9
:1031000010BD2DE9F84FDFF818934278817889F8DF
:103110000420002689F80510074689F80660007823
:103120003546052812D2DFE800F01203050D0F0026
:1031300001260CE0FFF77AFFBB480168C907FCD005
:10314000022604E0B94E02E0B94E00E0FFDF00F0D5
:1031500088FD4FF0010B4FF0804448B100F088FD2E
:10316000B04205D1304600F087FD0028FAD03CE09F
:10317000C4F80CB0C4F80451AE490E604FF0805151
:10318000D1F84412AB4AC1F3423124321160A9494B
:103190003431C1F800B04FF0020AC4F804A3C4F8F7
:1031A00008B0A5480168C94341F3001101F10108C5
:1031B000016841F01001016002E000BF2CF048FE00
:1031C000D4F804010028F9D0304600F055FD00285D
:1031D000FAD0B8F1000F04D19748016821F010012E
:1031E0000160C4F808A3C4F8045199F805004E46DC
:1031F00080B1387870B900F022FD804601F0D2FB32
:103200006FF00042B8F1000F02D0C6E9032001E0E0
:10321000C6E9030284480068C00701D000F00BFD36
:10322000387810B13572BDE8F88F4FF01808C4F83F
:1032300008835F46C4F818B04FF42070ADF8000062
:10324000BDF80000411EADF80010F9D2C4F80C51D1
:10325000C4F810517248C01D00F0A8FD3570FFF78A
:103260003AFF67617349307920310860C4F80483FC
:10327000D9E770B5050000D1FFDF4FF080424FF075
:10328000FF30C2F808030021C2F80011C2F804118F
:10329000C2F80C11C2F81011614C617000F0DBFC37
:1032A00010B10120A07060705F480068C00701D0B5
:1032B00000F0C1FC2846BDE8704022E75848007A7B
:1032C000002800D0012070472DE9F04F5B484FF0F7
:1032D000000A85B0D0F800B0D1465746574A584941
:1032E000083211608406D4F8080110B14FF00108CB
:1032F00001E04FF0000801F0ACFE78B1D4F82401F1
:1033000000B101208246D4F81C0100B101208146A1
:10331000D4F8200108B1012700E00027D4F800010B
:1033200000B101200490D4F8040100B10120039001
:10333000D4F80C0100B101200290D4F8100100B1C2
:103340000120374D0190287800260090B8F1000F39
:1033500004D0C4F80861012000F0B7FABAF1000FF8
:1033600004D0C4F82461092000F0AFFAB9F1000FCD
:1033700004D0C4F81C610A2000F0A7FA27B1C4F8F1
:1033800020610B2000F0A1FA2548C01D00F016FDB9
:1033900000B1FFDFDFF88C800498012780B1C4F80A
:1033A0000873E87818B1EE70002000F08EFA287AE1
:1033B000022805D1032028720221C8F800102761D5
:1033C000039808B1C4F80461029850B1C4F80C61C4
:1033D000287A032800D0FFDFC8F800602F72FFF7BB
:1033E0004EFE019838B1C4F81061287A012801D145
:1033F00000F060F86761009838B12E70287A0128D3
:1034000001D1FFF768FEFFF73AFE0548C01D00F046
:10341000EBFC0A49091DC1F800B005B0BDE8F08F0A
:1034200010000020340C00400C0400400100020099
:10343000010003001805004010ED00E010050240F7
:103440000100000110B52F4800F0B8FC2D49C91F3C
:1034500040B1012008704FF0E021C1F80002BDE842
:103460001040E3E5087A012801D1FFF734FEBDE8FA
:103470001040244800F0B8BC70B5224CE41FA0787E
:1034800008B900F0CFFB01208507A861207A00264B
:10349000032809D1D5F80C0120B9002000F0ECFB7D
:1034A0000028F7D1C5F80C6126724FF0FF30C5F83F
:1034B000080370BD70B5134CE41F6079F0B10128AA
:1034C00003D0A179401E814218DA00F0B8FB05460E
:1034D00001F068FA6179012902D9A179491CA17129
:1034E0000DB1216900E0E168411A022902DA11F107
:1034F000020F06DC0DB1206100E0E060BDE8704025
:10350000E9E570BD170000202DE9F0410446800771
:103510004FF000054FF001060CD56B4805600660C2
:1035200001F0B4FD20B16948016841F48061016097
:1035300024F00204E0044FF0FF3705D564484660EC
:10354000C0F8087324F48054600003D56148056016
:1035500024F08044E0050FD55F48C0F80052C0F861
:1035600008735E490D60091D0D605C4A04210C3230
:103570001160066124F48074A00409D5584846609F
:10358000C0F80052C0F808735648056024F400548F
:10359000C4F38030C4F3C031884200D0FFDF14F49C
:1035A000404F14D050484660C0F808734F488660BA
:1035B000C0F80052C0F808734D490D600A1D16602E
:1035C0008660C0F808730D60166024F4404420053E
:1035D0000AD5484846608660C0F80873C0F848734A
:1035E0004548056024F4006400F0CEFD43480442E1
:1035F00000D0FFDFBDE8F081F0B5002220250123D7
:103600004FEA020420FA02F1C9072DD051B2002975
:1036100010DB00BF4FEA51174FEA870701F01F0682
:1036200007F1E02703FA06F6C7F88061BFF34F8F72
:10363000BFF36F8F0CDB00BF4FEA51174FEA8707CC
:1036400001F01F0607F1E02703FA06F6C7F88062CB
:1036500004DB01F1E02181F8004405E001F00F01F5
:1036600001F1E02181F8144D02F10102AA42C9D30F
:10367000F0BD10B5224C20600846FFF7FAFD206827
:10368000FFF742FF2068FFF7B7FF00F03BF800F0BC
:10369000D0FF00F079FD00F0B6FC01F0B7F8BDE80E
:1036A000104000F033B910B5154C2068FFF72CFF1F
:1036B0002068FFF7A1FF00F067FDFFF7DDFE0020A7
:1036C000206010BD0A207047FC1F00403C170040DE
:1036D00000C0004004E50140008000400485004037
:1036E00000D0004004D5004000E0004000F0004061
:1036F00000F5004000B0004008B50040FEFF0FFD9F
:103700002400002010B5554800F050FB00B1FFDF49
:103710005248401C00F04AFB002800D0FFDF10BDDB
:103720002DE9F14F4E4E82B0D6F800B001274B483C
:1037300000F044FBDFF8248120B9002708F10100E4
:1037400000F052FB474C00254FF003090120606058
:10375000C4F80051C4F80451029931602060DFF8C8
:1037600008A11BE0DAF80000C00617D50E2000F013
:1037700068F8EFF3108010F0010072B600D001205D
:103780000090C4F80493D4F8000120B9D4F80401DF
:1037900008B92CF05DFB009800B962B6D4F80001BE
:1037A00018B9D4F804010028DCD0D4F804010028AA
:1037B000CCD137B1C6F800B008F1010000F0FEFA34
:1037C00011E008F1010000F0F9FA0028B6D1C4F8C0
:1037D0000893C4F80451C4F800510E2000F031F8E9
:1037E0001E4800F001FB0020BDE8FE8F2DE9F043EC
:1037F0008DB00D46064600240DF110090DF120088C
:1038000018E000BF04EB4407102255F82710684663
:103810002CF039FA05EB87071022484679682CF01E
:1038200032FA6846FFF77CFF10224146B8682CF058
:103830002AFA641CB442E5DB0DB00020BDE8F08339
:103840006EE7002809DB00F01F02012191404009CA
:10385000800000F1E020C0F88012704728000020AE
:1038600004E5004000E0004010ED00E070B526499E
:103870000A680AB30022154601244B685B1C4B60A2
:103880000C2B00D34D600E7904FA06F30E681E422D
:103890000FD0EFF3108212F0010272B600D00122B5
:1038A0000C689C430C6002B962B649680160002054
:1038B00070BD521C0C2AE0D3052070BD4FF0E021F2
:1038C0004FF48000C1F800027047EFF3108111F04F
:1038D000010F72B64FF0010202FA00F20A480368C3
:1038E00042EA0302026000D162B6E7E7064800211F
:1038F0000160416070470121814003480068084031
:1039000000D00120704700002C000020B7490020A3
:103910000870704770B5B64D01232B60B54B1C681D
:10392000002CFCD0002407E00E6806601E68002E04
:10393000FCD0001D091D641C9442F5D300202860B2
:1039400018680028FCD070BD70B5A84E0446AA4D7A
:103950003078022800D0FFDFAC4200D3FFDF71696E
:10396000A648012903D847F23052944201DD0322D0
:103970004271491C7161291BC160A049707800F037
:1039800032F9002800D1FFDF70BD70B5974C0D46AD
:103990006178884200D0FFDF974E082D4BD2DFE8D8
:1039A00005F04A041E2D4A4A4A382078022800D0E1
:1039B000FFDF03202070A078012801D020B108E0AB
:1039C000A068FFF7E9FA04E004F1080007C8FFF770
:1039D000A1FF05202070BDE8704001F08EBE01F00F
:1039E00087FF0146606802F0CFFEB04202D26169F3
:1039F00002290BD30320FFF768FF12E001F078FFE4
:103A00000146606802F0C0FEB042F3D2BDE87040EB
:103A10009AE7207802280AD0052806D0FFDF042084
:103A20002070BDE8704000F0D4B8022000E0032010
:103A3000FFF74BFFF3E7FFDF70BD70B5054601F000
:103A400057FF6A4C60602078012800D0FFDF6B4987
:103A5000012008700020087104208D6048716648BC
:103A6000C86002202070607800F0BDF8002800D106
:103A7000FFDF70BD10B55D4C207838B90220FFF72C
:103A80003AFF18B90320FFF736FF08B1112010BD27
:103A90005B4801F0ACFE6070202804D0012020704B
:103AA0000020606110BD032010BD2DE9F0471546D0
:103AB000044600EB85000E46A0F10408FFF77FFAEC
:103AC0004FF080510A6900FB02F706EB8500001FEA
:103AD000B04201D2012000E0002081461DB10869FA
:103AE000B5EB900F02D90920BDE8F087204601F020
:103AF000DDFAB0B9A04514D3BC4201D2B84503D316
:103B0000404820447C2803D844EA0600800701D0BE
:103B10001020E9E7304601F0C9FA10B9B9F1000FF9
:103B200001D00F20E0E7384838490068884205D0C6
:103B30002A4631462046FFF7EDFE1AE0FFF79AFFCE
:103B40000028D1D1294800210561C0E902468170D1
:103B500001F055FA08B12E4801E04AF2F8706843C6
:103B60004FF47A7100F2E730B0FBF1F01830FFF754
:103B700064FF0020B8E770B505464FF08050046937
:103B80006C43204601F092FA08B10F2070BDFFF798
:103B900016FAA84201D8102070BD1B481B490068C6
:103BA000884203D02046FFF7F7F910E0FFF762FFE5
:103BB0000028F1D10D4801218460817001F01FFAC5
:103BC00008B1144800E014481830FFF736FF002011
:103BD00070BD10B5054C607801F06BFE00B9FFDFD9
:103BE0000020207010BD02F02FB90000340000202A
:103BF00004E5014000E40140105C0C005804002082
:103C00008B39000080EFFFEFAC000020BEBAFECA87
:103C100050280500645E0100A85B010001208107B7
:103C2000086070470121880741600021C0F8001139
:103C300018480170704717490120087070474FF00D
:103C40008040D0F80001012803D0124800780028F5
:103C500000D00120704710480068C00700D0012044
:103C600070470D480C300068C00700D00120704735
:103C70000948143000687047074910310A68D203B8
:103C800006D509688907B1EB807F01D10120704713
:103C9000002070474C000020080400403F490120EC
:103CA0000860704770B50D2000F059F83C4C0020BA
:103CB000C4F800010125C4F804530D2000F060F899
:103CC00025604FF0E0216014C1F8000170BD10B50F
:103CD0000D2000F044F83248012141600021C0F875
:103CE0000011BDE810400D2000F04AB82D4810B575
:103CF00004682C492C480831086005F068FB4178BD
:103D00000C230122002005F058FB2549D1F80001C1
:103D100001280DD0FFDF2348001D046005F057FB8C
:103D2000417810230122BDE81040104605F045BB44
:103D30001A48001D00680022C0B2C1F8002100F03E
:103D4000EAFCE8E710B51648D0F800110029FBD0CE
:103D5000FFF7CCFFBDE810400D2000F011B800289F
:103D60000DDB00F01F02012191404009800000F1AD
:103D7000E020C0F88011BFF34F8FBFF36F8F704703
:103D8000002809DB00F01F0201219140400980005A
:103D900000F1E020C0F880127047000004D5004018
:103DA00000D0004010050240010000010021017018
:103DB000084670470146002008707047EFF31081F5
:103DC00001F0010172B60278012A01D0012200E05F
:103DD00000220123037001B962B60AB100207047C6
:103DE0004FF400507047E9E7EFF3108111F0010F35
:103DF00072B64FF00002027000D162B60020704728
:103E0000F2E700000C490A6848F202139A430243A1
:103E10000A607047084A116848F2021301EA030079
:103E20009943116070470246044B10201344FC2B49
:103E300001D8116000207047C80602400018FEBF7C
:103E40007E4909680160002070477C4908600020B5
:103E5000704701218A0720B1012804D042F20400F2
:103E60007047916700E0D1670020704774490120D6
:103E7000086042F20600704708B50423704A19072B
:103E8000103230B1C1F80433106840F00100106006
:103E90000BE0106820F001001060C1F8083300202A
:103EA000C1F80801674800680090002008BD011FA4
:103EB0000B2909D8624910310A6822F01E0242EA31
:103EC000400008600020704742F2050070470F284C
:103ED00009D85B4910310A6822F4706242EA002076
:103EE00008600020704742F205007047000100F1B1
:103EF0008040C0F8041900207047000100F18040A4
:103F0000C0F8081900207047000100F18040D0F887
:103F10000009086000207047012801D90720704778
:103F2000494A52F8200002680A43026000207047A4
:103F3000012801D907207047434A52F8200002683F
:103F40008A43026000207047012801D9072070478A
:103F50003D4A52F8200000680860002070470200C7
:103F60003A494FF0000003D0012A01D007207047E2
:103F70000A607047020036494FF0000003D0012A62
:103F800001D0072070470A60704708B54FF40072EF
:103F9000510510B1C1F8042308E0C1F8082300203E
:103FA000C1F8240127481C3000680090002008BD9B
:103FB00008B58022D10510B1C1F8042308E0C1F88A
:103FC00008230020C1F81C011E481430006800902E
:103FD000002008BD08B54FF48072910510B1C1F8FA
:103FE000042308E0C1F808230020C1F82001154887
:103FF000183000680090002008BD10493831096869
:1040000001600020704770B54FF080450024C5F86E
:10401000084101F000F810B901F007F828B1C5F81F
:104020002441C5F81C41C5F820414FF0E020802113
:1040300080F800140121C0F8001170BD0004004098
:1040400000050040080100403401030078050040ED
:10405000800500406249634B0A6863499A420968D7
:1040600001D1C1F310010160002070475C495D4B34
:104070000A685D49091D9A4201D1C0F31000086029
:10408000002070475649574B0A68574908319A42F1
:1040900001D1C0F3100008600020704730B5504BCC
:1040A000504D1C6842F20803AC4202D0142802D2E0
:1040B00003E0112801D3184630BDC3004B48184413
:1040C000C0F81015C0F81425002030BD4449454BF8
:1040D0000A6842F209019A4202D0062802D203E09D
:1040E000042801D308467047404A012142F83010A5
:1040F000002070473A493B4B0A6842F209019A4254
:1041000002D0062802D203E0042801D308467047F3
:10411000364A012102EBC00041600020704770B5B3
:104120002F4A304E314C156842F2090304EB8002ED
:10413000B54204D0062804D2C2F8001807E00428CB
:1041400001D3184670BDC1F31000C2F8000800206A
:1041500070BD70B5224A234E244C156842F2090303
:1041600004EB8002B54204D0062804D2D2F800083D
:1041700007E0042801D3184670BDD2F80008C0F348
:1041800010000860002070BD174910B508311848AC
:1041900008601120154A002102EBC003C3F8101576
:1041A000C3F81415401C1428F6D3002006E0042898
:1041B00004D302EB8003C3F8001807E002EB80038E
:1041C000D3F80048C4F31004C3F80048401C062884
:1041D000EDD310BD0449064808310860704700005F
:1041E000AC000020BEBAFECA00F5014000F001405C
:1041F0000000FEFF02000B464FF00000014620D0F9
:10420000012A04D0022A04D0032A0DD103E00120A0
:1042100002E0022015E00320072B05D2DFE803F0BF
:104220000406080A0C0E100007207047012108E060
:10423000022106E0032104E0042102E0052100E060
:10424000062101F0F2BA0000E24805218170002148
:10425000017041707047E0490A78012A05D0CA68A8
:104260001044C860403802F049BA8A681044886037
:10427000F8E7002819D00378D849D94A13B1012B9F
:104280000ED011E00379012B00D06BB943790BB14B
:10429000012B09D18368643B8B4205D2C0680EE0D4
:1042A0000379012B02D00BB10020704743790BB189
:1042B000012BF9D1C368643B8B42F5D280689042F0
:1042C000F2D801207047C44901220A70027972B104
:1042D00000220A71427962B104224A718268523224
:1042E0008A60C068C860BB4902208870704703229A
:1042F000EFE70322F1E770B5B74D044600202870C0
:10430000207988B100202871607978B10420B14EFD
:104310006871A168F06800F069FFA860E068523039
:10432000E8600320B07070BD0120ECE70320EEE7E9
:104330002DE9F0410546022602F0B4F8006800B10C
:10434000FFDFA44C01273DB12878B8B1012805D082
:10435000022811D0032814D027710DE06868C828FE
:1043600008D3042102F03BFA20B16868FFF773FF1D
:10437000012603E0002601E000F014F93046BDE814
:10438000F08120780028F7D16868FFF772FF0028D5
:10439000E2D06868017879B1A078042800D0FFDF06
:1043A00001216868FFF7A7FF8B49E07800F003F967
:1043B0000028E1D1FFDFDFE7FFF785FF6770DBE76C
:1043C0002DE9F041834C0F46E178884200D0FFDFB1
:1043D00000250126082F7DD2DFE807F0040B2828EE
:1043E0003D434F57A0780328C9D00228C7D0FFDF2C
:1043F000C5E7A078032802D0022800D0FFDF042000
:10440000A07025712078B8BB0020FFF724FF724808
:104410000178012906D08068E060FFF7FBFC20618D
:10442000002023E0E07801F0A0FBF5E7A078032866
:1044300002D0022800D0FFDF207880BB022F08D0F6
:104440005FF00500FFF741FAA078032840D0A5707F
:1044500095E70420F6E7A078042800D0FFDF0220CB
:1044600004E0A078042800D0FFDF0120A16888477D
:10447000FFF75EFF054633E003E0A078042800D094
:10448000FFDFBDE8F04100F08DB8A078042804D02B
:10449000617809B1022800D0FFDF207818B1BDE8AB
:1044A000F04100F08AB8207920B10620FFF70DFA1C
:1044B00025710DE0607840B14749E07800F07BF865
:1044C00000B9FFDF65705AE704E00720FFF7FDF948
:1044D000A67054E7FFDF52E73DB1012D03D0FFDFA7
:1044E000022DF9D14BE70420C0E70320BEE770B5E9
:1044F000050004D0374CA078052806D101E0102033
:1045000070BD0820FFF7F7F908B1112070BD3548DC
:1045100001F06DF9E070202806D0012102F020FBA7
:104520000020A560A07070BD032070BD294810B5A3
:10453000017809B1112010BD8178052906D0012923
:1045400006D029B101210170002010BD0F2010BD3F
:1045500000F033F8F8E770B51E4C0546A07808B1B6
:10456000012809D155B12846FFF783FE40B12878CC
:1045700040B1A078012809D00F2070BD102070BD77
:10458000072070BD2846FFF79EFE03E00021284665
:10459000FFF7B1FE1049E07800F00DF800B9FFDF39
:1045A000002070BD0B4810B50069FFF72BFCBDE87B
:1045B000104001F0A2B801F047BC064810B5C07821
:1045C00001F077F900B9FFDF0820FFF77EF9BDE8B9
:1045D000104039E650000020680400203D860100AC
:1045E000FF1FA107C14300002DE9F04115460E460B
:1045F0000446002700F0EBF8A84215D30023412021
:104600000FE000BF94F84220A25CF25494F84210EC
:10461000491CB1FBF0F200FB12115B1C84F8421044
:10462000DBB2AB42EED3012700F0DDF83846BDE83F
:10463000F081724910B5802081F800047049002093
:1046400081F8420081F84100433181F8420081F84D
:104650004100433181F8420081F841006948FFF789
:10466000A5FB6848401CFFF7A1FBFFF717FBBDE85F
:10467000104000F0B8B840207047614800F0A7B87B
:104680000A4601465E48AFE7402070475C48433029
:1046900000F09DB80A46014659484330A4E740213E
:1046A00001700020704710B504465548863000F070
:1046B0008EF82070002010BD0A460146504810B503
:1046C0008630FFF791FF08B1002010BD42F20700CD
:1046D00010BD70B50C460646412900D9FFDF4A4897
:1046E0000068103840B200F054F8C5B20D2000F058
:1046F00050F8C0B2854201D3012504E0002502E054
:104700000DB1FFF71FFB224631463D48FFF76CFF16
:104710000028F5D070BD2DE9F0413A4F002506463E
:1047200017F1040757F82540204600F041F810B370
:104730006D1CEDB2032DF5D33148433000F038F84D
:10474000002825D02E4800F033F8002820D02C482F
:10475000863000F02DF800281AD0FFF7B8FA294863
:10476000FFF72CFBB0F5005F00D0FFDFBDE8F041A4
:104770002448FFF739BB94F841004121265414F82E
:10478000410F401CB0FBF1F201FB12002070D3E797
:104790004DE7002804DB00F1E02090F8000405E07C
:1047A00000F00F0000F1E02090F8140D4009704770
:1047B00010F8411F4122491CB1FBF2F302FB131117
:1047C0004078814201D1012070470020704710F8E5
:1047D000411F4078814201D3081A02E0C0F1410034
:1047E0000844C0B2704710B50648FFF7E7FA002842
:1047F00003D1BDE81040FFF755BA10BD0DE000E051
:10480000780400206400002004ED00E04FF0E02177
:104810004FF00070C1F8800101F5C071BFF34F8FF8
:10482000BFF36F8FC1F80001424B802283F8002450
:1048300041F8800C704700B5024606203E4903E06F
:1048400001EBC0031B792BB1401EC0B2F8D2FFDFD1
:10485000FF2000BD41F8302001EBC00100224A7169
:104860008A7101220A7100BD334A002102EBC000A7
:104870000171704710B50446062800D3FFDF2E48AB
:1048800000EBC4042079012800D0FFDF6079A17912
:10489000401CC0B2814200D060714FF0E0214FF067
:1048A0000070C1F8000210BD70B50625224E234CE1
:1048B00016E0217806EBC1000279012A08D142797D
:1048C00083799A4204D04279827156F83100804748
:1048D0002078401CC0B22070062801D30020207030
:1048E0006D1EEDB2E5D270BD154810B504681449CF
:1048F00014480831086004F06AFD41780B23012256
:10490000002004F05AFD0B4890F8000440090428E8
:1049100000D0FFDFFFF7C8FF0948001D046004F066
:1049200056FD417810230122BDE81040104604F0E6
:1049300044BD000019E000E04405002074000020A0
:10494000100502400100000170B5154D2878401C8B
:10495000C4B26878844202D000F0DBFA2C7070BDDB
:104960002DE9F0410E4C4FF0E02600BF00F0C6FAF2
:104970002BF06EFA40BF20BF677820786070D6F8C1
:104980000052FEF771FA854305D1D6F8040210B93A
:104990002078B842EAD000F0ACFA0020BDE8F081FF
:1049A000750000202DE9F04101264FF0E02231038F
:1049B0004FF000084046C2F88011BFF34F8FBFF39D
:1049C0006F8F204CC4F800010C2000F02EF81E4D13
:1049D0002868C04340F30017286840F010002860A2
:1049E000C4F8046326607F1C02E000BF2BF030FA9D
:1049F000D4F800010028F9D01FB9286820F0100071
:104A00002860124805686660C4F80863C4F800812D
:104A10000C2000F00AF82846BDE8F08110B50446E5
:104A2000FFF7C0FF2060002010BD002809DB00F068
:104A30001F02012191404009800000F1E020C0F8F0
:104A40008012704700C0004010ED00E008C5004033
:104A50002DE9F047FF4C0646FF21A06800EB061247
:104A600011702178FF2910D04FF0080909EB0111CE
:104A700009EB06174158C05900F0F4F9002807DD8A
:104A8000A168207801EB061108702670BDE8F08758
:104A900094F8008045460DE0A06809EB05114158E7
:104AA000C05900F0DFF9002806DCA068A84600EB3A
:104AB00008100578FF2DEFD1A06800EB061100EB80
:104AC00008100D700670E1E7F0B5E24B04460020D7
:104AD00001259A680C269B780CE000BF05EB0017B7
:104AE000D75DA74204D106EB0017D7598F4204D0F7
:104AF000401CC0B28342F1D8FF20F0BD70B501F078
:104B00006CFED44C08252278A16805EB0212895866
:104B100000F0A8F9012808DD2178A06805EB011153
:104B20004058BDE8704001F04FBE01F0BEFCBDE84A
:104B30007040FFF79FBE2DE9F041C64C257801F08B
:104B40004CFEFF2D6ED04FF00808A26808EB05164A
:104B5000915900F087F90228A06801DD80595DE0D5
:104B600000EB051109782170022101EB0511425C6F
:104B70005AB1521E4254815901F5800121F07F4102
:104B800081512846FFF764FF34E00423012203EB40
:104B9000051302EB051250F803C0875CBCF1000F4F
:104BA00010D0BCF5007F10D9CCF3080250F806C035
:104BB0000CEB423C2CF07F4C40F806C0C3589A1ACC
:104BC000520A09E0FF2181540AE0825902EB4C327B
:104BD00022F07F428251002242542846FFF738FFDC
:104BE0000C21A06801EB05114158E06850F827201E
:104BF000384690472078FF2814D001F0EEFD227847
:104C0000A16808EB02124546895800F02BF90128EB
:104C100093DD2178A06805EB01114058BDE8F04113
:104C200001F0D2BDBDE8F081F0B51D4614460E4638
:104C30000746FF2B00D3FFDFA00700D0FFDF85482A
:104C4000FF210022C0E90247C57006710170427061
:104C500082701046012204E002EB0013401CE15474
:104C6000C0B2A842F8D3F0BD70B57A4C064665785C
:104C70002079854200D3FFDFE06840F82560607846
:104C8000401C6070284670BD2DE9FF5F1D468B46B5
:104C90000746FF2401F0A1FDDFF8B891064699F818
:104CA0000100B84200D8FFDF00214FF001084FF0AB
:104CB0000C0A99F80220D9F808000EE008EB01135D
:104CC000C35CFF2B0ED0BB4205D10AEB011350F899
:104CD00003C0DC450CD0491CC9B28A42EED8FF2C77
:104CE00002D00DE00C46F6E799F803108A4203D192
:104CF000FF2004B0BDE8F09F1446521C89F8022042
:104D000008EB04110AEB0412475440F802B00421E6
:104D1000029B0022012B01EB04110CD040F8012072
:104D20004FF4007808234FF0020C454513D9E905EC
:104D3000C90D02D002E04550F2E7414606EB413290
:104D400003EB041322F07F42C250691A0CEB0412E9
:104D5000490A81540BE005B9012506EB453103EB07
:104D6000041321F07F41C1500CEB0411425499F817
:104D700000502046FFF76CFE99F80000A84201D0D1
:104D8000FFF7BCFE3846B4E770B50C46054601F0A7
:104D900024FD064621462846FFF796FE0446FF28D6
:104DA0001AD02C4D082101EB0411A8684158304657
:104DB00000F058F800F58050C11700EBD1404013C7
:104DC0000221AA6801EB0411515C09B100EB4120FA
:104DD000002800DC012070BD002070BD2DE9F047E7
:104DE00088468146FFF770FE0746FF281BD0194D05
:104DF0002E78A8683146344605E0BC4206D02646E7
:104E000000EB06121478FF2CF7D10CE0FF2C0AD02F
:104E1000A6420CD100EB011000782870FF2804D0C6
:104E2000FFF76CFE03E0002030E601F0D3FC4146C2
:104E30004846FFF7A9FF0123A968024603EB0413C4
:104E4000FF20C854A878401EB84200D1A87001EBDA
:104E5000041001E07405002001EB061100780870D1
:104E6000104613E6081A0002C11700EB1160001289
:104E70007047000010B5202000F07FF8202000F0DF
:104E80008DF84D49202081F80004FDF7EBFF4B49D8
:104E900008604B48D0F8041341F00101C0F8041336
:104EA000D0F8041341F08071C0F804134249012086
:104EB0001C39C1F8000110BD10B5202000F05DF8CC
:104EC0003E480021C8380160001D01603D4A481E6F
:104ED00010603B4AC2F80803384B1960C2F8000161
:104EE000C2F8600138490860BDE81040202000F099
:104EF00055B834493548091F08607047314933486F
:104F0000086070472D48C8380160001D521E0260BD
:104F100070472C4901200860BFF34F8F70472DE97F
:104F2000F0412849D0F8188028480860244CD4F86B
:104F300000010025244E6F1E28B1404600F0B6F84F
:104F400040B9002111E0D4F8600198B1404600F06A
:104F5000ADF848B1C4F80051C4F860513760BDE8FD
:104F6000F041202000F01AB831684046BDE8F04119
:104F70002AF078BFFFDFBDE8F08100280DDB00F0EC
:104F80001F02012191404009800000F1E020C0F89B
:104F90008011BFF34F8FBFF36F8F7047002809DB7D
:104FA00000F01F02012191404009800000F1E02043
:104FB000C0F880127047000020E000E0C806024000
:104FC00000000240180502400004024001000001F8
:104FD0004FF08050D0F830010A2801D000207047EF
:104FE0000120704700B5FFF7F3FF20B14FF080506C
:104FF000D0F8340108B1002000BD012000BD4FF001
:105000008050D0F83001062803D0401C01D0002089
:105010007047012070474FF08050D0F830010D28C4
:1050200001D000207047012070474FF08050D0F829
:105030003001082801D000207047012070474FF050
:105040008050D0F83001102801D000207047012096
:10505000704700B5FFF7F3FF30B9FFF7DCFF18B971
:10506000FFF7E3FF002800D0012000BD00B5FFF7E7
:10507000C6FF38B14FF08050D0F83401062803D372
:10508000401C01D0002000BD012000BD00B5FFF78D
:10509000B6FF48B14FF08050D0F83401062803D352
:1050A000401C01D0012000BD002000BD32498842D3
:1050B00001D2012070470020704770B50446A0F56A
:1050C00000002E4EB0F1786F02D23444A4F50004F3
:1050D0002948844201D2012500E0002500F043F870
:1050E00048B125B9B44204D32548006808E001203E
:1050F00070BD002070BD002DF9D1B442F9D3214814
:105100008442F6D2F3E710B50446A0F50000B0F1F2
:10511000786F03D219480444A4F5000400F023F882
:105120004FF0804130B11648006804E08C4204D250
:10513000012003E013488442F8D2002080F00100EF
:1051400010BD10B520B1FFF7DEFF08B1012010BD82
:10515000002010BD10B520B1FFF7AFFF08B101204E
:1051600010BD002010BD084808490068884201D1E0
:10517000012070470020704700100300000000204D
:105180009000002008000020AC000020BEBAFECA3B
:105190002DE9F0410746FD48904600250C4600EBFE
:1051A0008816072F07D2DFE807F007070707040470
:1051B0000400012500E0FFDF06F81470002D08BF91
:1051C000BDE8F081F24800EB880090F82710202914
:1051D0000EBF80F8264006EB41014C70202106EB03
:1051E0004402517080F82740BDE8F08130B50D468B
:1051F000E84A44190021101A71EB010038BFFFDFA3
:10520000E5488542C8BFFFDFE4488542B8BFFFDFFD
:10521000E3488442A8BFE34804DA002CAABF204632
:10522000DF4830BD201830BD2DE9F05FD84D95F82E
:105230002D6005EB860090F82640202C08BFBDE8C5
:10524000F09FDFF864A3DFF84493A9F5007B09EB36
:105250008618072718F8140001280AD0042808BF68
:10526000022706D0052808BF032702D0062818BF4A
:10527000FFDFBAF1000F18BFAFF30080EFF310802B
:1052800000F0010072B608EB44014A7805EB860194
:1052900081F8262091F82720A24204BF202281F81D
:1052A0002720A0B1324621460120FFF771FF0BEB0A
:1052B0000410394602682046904795F82D6005EBAA
:1052C000860090F82640202CC1D1BDE8F09FB74859
:1052D000002818BFAFF3008062B6E3E710B5AC4C0E
:1052E000202184F8251084F8261084F82710002047
:1052F00084F8280084F82D0084F82E10411EA16047
:10530000206084F8200084F8210020776077A0775F
:10531000A74984F82F0084F8240008704870A4F18D
:1053200082011022887001F8040F521EFAD1012068
:1053300001F0B2FD002001F0AFFD012084F8220051
:10534000FFF764FA9B48FFF776FA9B4C20709B4866
:10535000FFF771FA6070BDE8104001F02BBD10B589
:1053600001F059FD944C2078FFF77EFA6078FFF742
:105370007BFA874C94F82400002808BF10BDFDF785
:105380007EFE002084F8240010BD202070470020FD
:1053900001F072BD70B50546012000FA05F40E4615
:1053A000002A08BF86480CD0002001F065FDE90006
:1053B00001F1804101F5F831C1F81005C1F814651B
:1053C0008048046070BD2DE9F04F8146704889B077
:1053D00000EB8908A0F5207798F82550202D3CD0C7
:1053E0002C4601F006FE07EB0412774E51689268D6
:1053F000091A101A21F07F4120F07F40012904D3BF
:10540000B1F5800F01D286421BD2604800EB891BA8
:10541000A2460BEB4A004478202C12D001F0E9FDA3
:1054200007EB04114A688968121A081A22F07F42B1
:1054300020F07F40012AEBD3B2F5800FE8D28642FC
:10544000E6D3AC4209D04B4652462021042001F05D
:10545000AFFB09B00020BDE8F08F5C48002818BF02
:10546000AFF3008001F0C5FD494C94F82F1069B1ED
:10547000E168421C511A0902CA1701EB12610912B4
:105480000029C2BF002009B0BDE8F08F0646CDF864
:10549000208098F82500202835D04FF000084FF0E4
:1054A000FF3107EB001BCDF800800291DBE9010121
:1054B000DBF80C200592CDE903014548B0F89C12B9
:1054C000ADF81C1090F89E028DF81E009DF8150096
:1054D00000280CBF4FF0040A4FF0020A3D4951F872
:1054E0002070039907EB0A02114421F07F410191DA
:1054F000002F14BF022100218DF81810022818BFB8
:10550000012815D035E04FF0010001F0C5FC002066
:1055100001F0C2FC01F0A6FC94F8240020B1FDF7D4
:10552000AEFD002084F82400002084F82F00D6E08F
:1055300003989DF81C103844801B801C20F07F408D
:10554000002918BF0221353181420BD203208DF88A
:1055500015000398C7F13201401A20F07F4032272E
:1055600003903AE094F8240018B9FEF768FB00288D
:105570007DD0322F31D247B194F8240060BBFDF7C3
:1055800055FD012084F824002EE026E08407002049
:1055900004080020FF7F841E0020A10700E05EF8C1
:1055A0000080841E00807BE10000000000000000FD
:1055B00079000020374B00007700002029520000BE
:1055C00008F5014004F50140FFFF3F000000000026
:1055D000840500203C01030006E094F8240018B183
:1055E000FDF74DFD84F82480FE4A1178D1B352783E
:1055F0000020D21B9DF818C0039F012916BF032964
:10560000012300238DF81E30002A04DDBA1A03920C
:1056100001228DF818209DF81C20002A18BF0220B6
:10562000039ADDF810E022F07F420392921BEE4BCA
:1056300022F07F42AEEB060626F07F46904298BFEE
:10564000B2F5800F01D2B3420CD29DF81D000028A4
:1056500008BF032947D08DF81C8003978DF818C028
:105660008DF81E809DF8180060B1039800E03AE0C4
:1056700000EB0A014FF001034FF00002184601F061
:1056800054FC02E0012001F007FC9BF90C200123EF
:105690000020019901F049FC9BF80F0010F0010F68
:1056A00018BF01F0C8FD012084F82F00089880F889
:1056B00028809DE80E10CD48C0F88012C0F88422E2
:1056C000C0F88832C0F88CC204AD95E80E10C0F85E
:1056D0009012C0F89422C0F89832C0F89CC209B069
:1056E0000120BDE8F08F4B462A462021042001F01E
:1056F0005FFA09B00020BDE8F08F2DE9F041BC4C05
:10570000256901F076FC401B0002C11700EB116017
:10571000001258BFFFDF94F82200002818BFFFDFF7
:10572000012784F8227094F82E00202808BFFFDF9C
:1057300094F82E60202084F82E00002584F82F5045
:1057400084F8205084F82150A6482560007802286B
:1057500016BF0328012000202077A068B0F1FF3F8A
:1057600005D04FF0FF30A060012001F095FB002034
:1057700001F092FB01F0E8FC01F0DDFC01F072FBAE
:10578000FEF728FD9B48056005604FF0E0214FF4CF
:105790000040C1F8800201F073FD94F82D8040466E
:1057A000FFF711FE0028FAD0934800EB881010F89C
:1057B0001600022804D1424631460620FFF7E8FCD5
:1057C00084F8237004EB880090F82600202803D08A
:1057D0008A484078FFF74EF8207F002808BFBDE8D0
:1057E000F08101F09AFC25776577BDE8F0810346EA
:1057F0007F4810B590F82D200024803800EB8210EF
:1058000010F8141029B1611CCCB2202CF8D3202040
:1058100010BD7648002100EB04100360C1732146DF
:105820000120FFF7B5FC204610BD012804D0032855
:1058300008BF002934D000E079B36D4A92F82D30CA
:10584000DFF8B4C14FF000020CEB831313F812C061
:10585000BCF1000F01D008207047521CD2B2202AA0
:10586000F4D3604A002812BF0228002151700BD0E7
:10587000072915D2DFE801F01404060B0D0F120002
:105880001B2100E03A215170107000207047582110
:10589000F9E77721F7E79621F5E701E0B521F2E78F
:1058A000072070474F4810B5407801F062FC80B285
:1058B00010BD10B5202811D24D4991F82D30A1F11D
:1058C000800202EB831C1CF810303BB191F82D30A4
:1058D00002EB831212F81020012A01D0002010BD23
:1058E00091F82D2001460020FFF752FC012010BD49
:1058F00010B501F07EFBBDE8104001F03ABC2DE987
:10590000F04F3B4A82B002EB810E20239EF8252007
:10591000DFF8ECB0354C4FF000096F4601AD8DF863
:105920000030202A1CBF344B03EB811A30D000BF5B
:1059300004EB021303F1040C9B680668F31A1B02C4
:105940004FEAE37803EB18631B1221D4437ACBB1FF
:105950009CF80980B8F1000F14D15BF82330DCF813
:1059600000C03344DBF800609B1CB4440CF1040C11
:10597000A3EB0C031B024FEAE37C03EB1C631B123B
:10598000322B05DB3A700AEB42025278202ACFD143
:105990003B782B70202A1CBFDFF85CC00CEB811811
:1059A0004FD000BF04EB0213D0F804C05F681E1D87
:1059B000A7EB0C0C4FEA0C2C4FEAEC7A0CEB1A6CB0
:1059C0005FEA2C2C32D496F809C0BCF1000F38D015
:1059D000467A002E35D15BF82CC0BC440CF102068F
:1059E00010E0000079000020FFFF3F008405002048
:1059F0000408002000F50040840700207700002004
:105A00003C010300D0F800C0DBF80070BC440CF18E
:105A1000040CA6EB0C0C4FEA0C2C4FEAEC760CEBCA
:105A2000166C4FEA2C2CBCF1320F0ADA2A709B7BE1
:105A300090F80AC0634505D908EB42025278202A43
:105A4000B0D18EE09DF80420D0E900C304EB02122F
:105A5000A3EB0C0392684FF0010922F07F4C1A442B
:105A600022F07F42C0E900C29EF8252020236F4625
:105A70008DF80030202A1CBFFD4B03EB811A2FD07C
:105A800004EB021303F1040C9B680668F31A1B0273
:105A90004FEAE37803EB18631B1221D4437ACBB1AE
:105AA0009CF80980B8F1000F14D15BF82330DCF8C2
:105AB00000C03344DBF800609B1CB4440CF1040CC0
:105AC000A3EB0C031B024FEAE37C03EB1C631B12EA
:105AD000322B05DB3A700AEB42025278202ACFD1F2
:105AE0003B782B70202A1CBFDFF884C30CEB811A93
:105AF00037D000BF04EB02164368776806F1040C48
:105B0000FB1A1B024FEAE37803EB18631B121CD449
:105B10009CF809302BB390F809C0BCF1000F20D1DC
:105B20005BF82330D0F800C03B44DBF800709B1CCE
:105B3000BC440CF1040CA3EB0C031B024FEAE37C06
:105B400003EB1C631B12322B0BDA2A70B37B90F829
:105B50000AC063457FF676AF0AEB42025278202AEC
:105B6000C8D102B04846BDE8F08F70B5C149C24AFD
:105B700001EB001454F8041F607A002852F820202A
:105B800011440CBF04200220084420F07F4001F0A3
:105B9000F0FA94F90850B94A44190021101A71EB2F
:105BA000010038BFFFDFB6488542C8BFFFDFB548F8
:105BB0008542B8BFFFDFB4488442A8BFB34803DAC8
:105BC000002CB8BFB04800DA2418204670BD2DE97B
:105BD000F04F0546AE4887B00068C005C00D11D033
:105BE000103840B20028B8BF00F00F0000F1E020EC
:105BF000ACBF90F8000490F8140D400908BF4FF0B6
:105C0000010A01D04FF0000A2878002804BFA14EF5
:105C1000A14F40F0D58027B1002140F2FF40AFF303
:105C2000008096F82D80002086F82300814627B159
:105C3000002140F20450AFF30080BAF1000F1FD1F1
:105C40004446012020EA04088948402200EB8411E0
:105C500000EB88102AF017F827B100214FF4936069
:105C6000AFF3008006EB840106EB8800D1F8251025
:105C7000C0F8251027B1002140F29C40AFF300800E
:105C800027B1002140F20C50AFF3008001F0B1F9D0
:105C900004462878EB46002868798DF80A002879B0
:105CA0008DF809007ED0297900225846AB6801F0B2
:105CB00039F896F82E0020281CBF3069401D78D096
:105CC000DDE9002120F07F40891A0090084420F08F
:105CD0007F40019041465846FFF711FED5E9023258
:105CE000297903A801F01EF80098019A001B121BE5
:105CF00020F07F40049922F07F42B0F5800F01D25E
:105D0000914209D2DDE90010401A204424F07F417D
:105D100020F07F40CDE9001027B1002140F2125061
:105D2000AFF3008096F82E00202814D03069009937
:105D3000091A0902CA1701EB126109120BD5DDE934
:105D40000021891A20F07F42084420F07F40CDE9ED
:105D500000204FF0010927B1002140F21C50AFF3A1
:105D6000008096F8230000287FF455AF27B100216A
:105D700040F22250AFF3008001F03BF90099019B03
:105D8000091A181A454A21F07F4120F07F40B1F5E9
:105D9000800F15D2824213D3BAF1000F1AD113E04B
:105DA00000E006E0D5E902232979584600F0BAFF61
:105DB000B2E73B484078052838BF052020447FE7FC
:105DC00007B00020BDE8F08F41466846FFF797FD19
:105DD00049EA0009B9F1000F2CD09DF80900264AC4
:105DE0000099002852F8202011440CBF0420022002
:105DF000084420F07F4001F0BCF99DF908601F4A7B
:105E000084190021101A71EB010038BFFFDF1C4814
:105E10008642C8BFFFDF1B488642B8BFFFDF1A4873
:105E20008442A8BF194803DA002CB8BF164800DA2C
:105E30002418AC6027B1002140F23550AFF3008048
:105E400007B00120BDE8F08F2DE9F34F104887B06F
:105E5000884600680F4DC005C00D2AD0103840B2EA
:105E60000028B8BF00F00F0000F1E0201AE00000A9
:105E700084070020840500203C010300FF7F841E6E
:105E80000020A10700E05EF80080841E00807BE116
:105E900004ED00E00408002000000000FFFF3F00C8
:105EA00079000020ACBF90F8000490F8140D400970
:105EB0002AD098F800004FF0000B00281CBF0128E2
:105EC000FFDFFE4C2CB14FF0000140F2F750AFF372
:105ED0000080FB4907984FF0010A01EB0010009089
:105EE00024B1002140F2FF50AFF30080BAF1000F5F
:105EF00017D000BF95F82D604FF0000985F823906A
:105F0000BBF1000F14D03DE095F82E004FF0010BCF
:105F1000202808BFFFDF98F80000002818BFFFDF27
:105F2000CFE7E848002818BFAFF3008062B6E1E78A
:105F30003746012020EA0706E348402200EB87119C
:105F400000EB861029F09FFE24B100214FF49360EE
:105F5000AFF3008005EB870105EB8600D1F8251033
:105F6000C0F8251024B1002140F29C40AFF300801E
:105F700024B1002140F20960AFF3008095F82300BE
:105F80000028ADD124B1002140F21360AFF30080AE
:105F900001F02FF8074698F800000DF1040A0028D8
:105FA00098F805008DF80E0098F804008DF80D00A3
:105FB00058D098F8041000225046D8F8083000F065
:105FC000B1FE95F82E0020281CBF2869401D51D035
:105FD000DDE9012120F07F40891A0190084420F07A
